{
  "contractName": "DexAggregator",
  "abi": [
    {
      "inputs": [
        {
          "internalType": "address",
          "name": "_fullyLiquidDex",
          "type": "address"
        },
        {
          "internalType": "address",
          "name": "_notSoLiquidDex",
          "type": "address"
        }
      ],
      "stateMutability": "nonpayable",
      "type": "constructor"
    },
    {
      "inputs": [],
      "name": "FullyLiquidDex",
      "outputs": [
        {
          "internalType": "contract FullyLiquidDecentralizedExchange",
          "name": "",
          "type": "address"
        }
      ],
      "stateMutability": "view",
      "type": "function",
      "constant": true
    },
    {
      "inputs": [],
      "name": "NotSoLiquidDex",
      "outputs": [
        {
          "internalType": "contract NotSoLiquidDecentralizedExchange",
          "name": "",
          "type": "address"
        }
      ],
      "stateMutability": "view",
      "type": "function",
      "constant": true
    },
    {
      "inputs": [],
      "name": "name",
      "outputs": [
        {
          "internalType": "string",
          "name": "",
          "type": "string"
        }
      ],
      "stateMutability": "view",
      "type": "function",
      "constant": true
    },
    {
      "inputs": [
        {
          "internalType": "bool[]",
          "name": "isLiquid",
          "type": "bool[]"
        },
        {
          "internalType": "address[]",
          "name": "tokenSold",
          "type": "address[]"
        },
        {
          "internalType": "address[]",
          "name": "tokenBought",
          "type": "address[]"
        },
        {
          "internalType": "uint256[]",
          "name": "amountSold",
          "type": "uint256[]"
        }
      ],
      "name": "executeSwaps",
      "outputs": [],
      "stateMutability": "nonpayable",
      "type": "function"
    }
  ],
  "bytecode": "0x60806040526040518060600160405280602181526020016200158c60219139600090816200002e919062000366565b503480156200003c57600080fd5b50604051620015ad380380620015ad8339818101604052810190620000629190620004b7565b81600160006101000a81548173ffffffffffffffffffffffffffffffffffffffff021916908373ffffffffffffffffffffffffffffffffffffffff16021790555080600260006101000a81548173ffffffffffffffffffffffffffffffffffffffff021916908373ffffffffffffffffffffffffffffffffffffffff1602179055505050620004fe565b600081519050919050565b7f4e487b7100000000000000000000000000000000000000000000000000000000600052604160045260246000fd5b7f4e487b7100000000000000000000000000000000000000000000000000000000600052602260045260246000fd5b600060028204905060018216806200016e57607f821691505b60208210810362000184576200018362000126565b5b50919050565b60008190508160005260206000209050919050565b60006020601f8301049050919050565b600082821b905092915050565b600060088302620001ee7fffffffffffffffffffffffffffffffffffffffffffffffffffffffffffffffff82620001af565b620001fa8683620001af565b95508019841693508086168417925050509392505050565b6000819050919050565b6000819050919050565b600062000247620002416200023b8462000212565b6200021c565b62000212565b9050919050565b6000819050919050565b620002638362000226565b6200027b62000272826200024e565b848454620001bc565b825550505050565b600090565b6200029262000283565b6200029f81848462000258565b505050565b5b81811015620002c757620002bb60008262000288565b600181019050620002a5565b5050565b601f8211156200031657620002e0816200018a565b620002eb846200019f565b81016020851015620002fb578190505b620003136200030a856200019f565b830182620002a4565b50505b505050565b600082821c905092915050565b60006200033b600019846008026200031b565b1980831691505092915050565b600062000356838362000328565b9150826002028217905092915050565b6200037182620000ec565b67ffffffffffffffff8111156200038d576200038c620000f7565b5b62000399825462000155565b620003a6828285620002cb565b600060209050601f831160018114620003de5760008415620003c9578287015190505b620003d5858262000348565b86555062000445565b601f198416620003ee866200018a565b60005b828110156200041857848901518255600182019150602085019450602081019050620003f1565b8683101562000438578489015162000434601f89168262000328565b8355505b6001600288020188555050505b505050505050565b600080fd5b600073ffffffffffffffffffffffffffffffffffffffff82169050919050565b60006200047f8262000452565b9050919050565b620004918162000472565b81146200049d57600080fd5b50565b600081519050620004b18162000486565b92915050565b60008060408385031215620004d157620004d06200044d565b5b6000620004e185828601620004a0565b9250506020620004f485828601620004a0565b9150509250929050565b61107e806200050e6000396000f3fe608060405234801561001057600080fd5b506004361061004c5760003560e01c806306fdde0314610051578063516259131461006f578063561e4e491461008d5780638590bd81146100ab575b600080fd5b6100596100c7565b6040516100669190610886565b60405180910390f35b610077610155565b6040516100849190610927565b60405180910390f35b61009561017b565b6040516100a29190610963565b60405180910390f35b6100c560048036038101906100c09190610d0c565b6101a1565b005b600080546100d490610e12565b80601f016020809104026020016040519081016040528092919081815260200182805461010090610e12565b801561014d5780601f106101225761010080835404028352916020019161014d565b820191906000526020600020905b81548152906001019060200180831161013057829003601f168201915b505050505081565b600260009054906101000a900473ffffffffffffffffffffffffffffffffffffffff1681565b600160009054906101000a900473ffffffffffffffffffffffffffffffffffffffff1681565b6000600160009054906101000a900473ffffffffffffffffffffffffffffffffffffffff1690506000600260009054906101000a900473ffffffffffffffffffffffffffffffffffffffff16905060005b86518110156107ed5786818151811061020e5761020d610e43565b5b6020026020010151156103b25785818151811061022e5761022d610e43565b5b602002602001015173ffffffffffffffffffffffffffffffffffffffff1663095ea7b38486848151811061026557610264610e43565b5b60200260200101516040518363ffffffff1660e01b815260040161028a929190610e90565b6020604051808303816000875af11580156102a9573d6000803e3d6000fd5b505050506040513d601f19601f820116820180604052508101906102cd9190610ece565b50600160009054906101000a900473ffffffffffffffffffffffffffffffffffffffff1673ffffffffffffffffffffffffffffffffffffffff1663df791e5087838151811061031f5761031e610e43565b5b602002602001015187848151811061033a57610339610e43565b5b602002602001015187858151811061035557610354610e43565b5b60200260200101516040518463ffffffff1660e01b815260040161037b93929190610efb565b600060405180830381600087803b15801561039557600080fd5b505af11580156103a9573d6000803e3d6000fd5b50505050610545565b8581815181106103c5576103c4610e43565b5b602002602001015173ffffffffffffffffffffffffffffffffffffffff1663095ea7b3838684815181106103fc576103fb610e43565b5b60200260200101516040518363ffffffff1660e01b8152600401610421929190610e90565b6020604051808303816000875af1158015610440573d6000803e3d6000fd5b505050506040513d601f19601f820116820180604052508101906104649190610ece565b50600260009054906101000a900473ffffffffffffffffffffffffffffffffffffffff1673ffffffffffffffffffffffffffffffffffffffff1663df791e508783815181106104b6576104b5610e43565b5b60200260200101518784815181106104d1576104d0610e43565b5b60200260200101518785815181106104ec576104eb610e43565b5b60200260200101516040518463ffffffff1660e01b815260040161051293929190610efb565b600060405180830381600087803b15801561052c57600080fd5b505af1158015610540573d6000803e3d6000fd5b505050505b600187516105539190610f61565b81036107da57600085828151811061056e5761056d610e43565b5b602002602001015173ffffffffffffffffffffffffffffffffffffffff1663dd62ed3e85306040518363ffffffff1660e01b81526004016105b0929190610f95565b602060405180830381865afa1580156105cd573d6000803e3d6000fd5b505050506040513d601f19601f820116820180604052508101906105f19190610fd3565b9050600086838151811061060857610607610e43565b5b602002602001015173ffffffffffffffffffffffffffffffffffffffff1663dd62ed3e85306040518363ffffffff1660e01b815260040161064a929190610f95565b602060405180830381865afa158015610667573d6000803e3d6000fd5b505050506040513d601f19601f8201168201806040525081019061068b9190610fd3565b90506000821115610732578683815181106106a9576106a8610e43565b5b602002602001015173ffffffffffffffffffffffffffffffffffffffff166323b872dd8633856040518463ffffffff1660e01b81526004016106ed93929190610efb565b6020604051808303816000875af115801561070c573d6000803e3d6000fd5b505050506040513d601f19601f820116820180604052508101906107309190610ece565b505b60008111156107d75786838151811061074e5761074d610e43565b5b602002602001015173ffffffffffffffffffffffffffffffffffffffff166323b872dd8533846040518463ffffffff1660e01b815260040161079293929190610efb565b6020604051808303816000875af11580156107b1573d6000803e3d6000fd5b505050506040513d601f19601f820116820180604052508101906107d59190610ece565b505b50505b80806107e590611000565b9150506101f2565b50505050505050565b600081519050919050565b600082825260208201905092915050565b60005b83811015610830578082015181840152602081019050610815565b60008484015250505050565b6000601f19601f8301169050919050565b6000610858826107f6565b6108628185610801565b9350610872818560208601610812565b61087b8161083c565b840191505092915050565b600060208201905081810360008301526108a0818461084d565b905092915050565b600073ffffffffffffffffffffffffffffffffffffffff82169050919050565b6000819050919050565b60006108ed6108e86108e3846108a8565b6108c8565b6108a8565b9050919050565b60006108ff826108d2565b9050919050565b6000610911826108f4565b9050919050565b61092181610906565b82525050565b600060208201905061093c6000830184610918565b92915050565b600061094d826108f4565b9050919050565b61095d81610942565b82525050565b60006020820190506109786000830184610954565b92915050565b6000604051905090565b600080fd5b600080fd5b600080fd5b7f4e487b7100000000000000000000000000000000000000000000000000000000600052604160045260246000fd5b6109cf8261083c565b810181811067ffffffffffffffff821117156109ee576109ed610997565b5b80604052505050565b6000610a0161097e565b9050610a0d82826109c6565b919050565b600067ffffffffffffffff821115610a2d57610a2c610997565b5b602082029050602081019050919050565b600080fd5b60008115159050919050565b610a5881610a43565b8114610a6357600080fd5b50565b600081359050610a7581610a4f565b92915050565b6000610a8e610a8984610a12565b6109f7565b90508083825260208201905060208402830185811115610ab157610ab0610a3e565b5b835b81811015610ada5780610ac68882610a66565b845260208401935050602081019050610ab3565b5050509392505050565b600082601f830112610af957610af8610992565b5b8135610b09848260208601610a7b565b91505092915050565b600067ffffffffffffffff821115610b2d57610b2c610997565b5b602082029050602081019050919050565b6000610b49826108a8565b9050919050565b610b5981610b3e565b8114610b6457600080fd5b50565b600081359050610b7681610b50565b92915050565b6000610b8f610b8a84610b12565b6109f7565b90508083825260208201905060208402830185811115610bb257610bb1610a3e565b5b835b81811015610bdb5780610bc78882610b67565b845260208401935050602081019050610bb4565b5050509392505050565b600082601f830112610bfa57610bf9610992565b5b8135610c0a848260208601610b7c565b91505092915050565b600067ffffffffffffffff821115610c2e57610c2d610997565b5b602082029050602081019050919050565b6000819050919050565b610c5281610c3f565b8114610c5d57600080fd5b50565b600081359050610c6f81610c49565b92915050565b6000610c88610c8384610c13565b6109f7565b90508083825260208201905060208402830185811115610cab57610caa610a3e565b5b835b81811015610cd45780610cc08882610c60565b845260208401935050602081019050610cad565b5050509392505050565b600082601f830112610cf357610cf2610992565b5b8135610d03848260208601610c75565b91505092915050565b60008060008060808587031215610d2657610d25610988565b5b600085013567ffffffffffffffff811115610d4457610d4361098d565b5b610d5087828801610ae4565b945050602085013567ffffffffffffffff811115610d7157610d7061098d565b5b610d7d87828801610be5565b935050604085013567ffffffffffffffff811115610d9e57610d9d61098d565b5b610daa87828801610be5565b925050606085013567ffffffffffffffff811115610dcb57610dca61098d565b5b610dd787828801610cde565b91505092959194509250565b7f4e487b7100000000000000000000000000000000000000000000000000000000600052602260045260246000fd5b60006002820490506001821680610e2a57607f821691505b602082108103610e3d57610e3c610de3565b5b50919050565b7f4e487b7100000000000000000000000000000000000000000000000000000000600052603260045260246000fd5b610e7b81610b3e565b82525050565b610e8a81610c3f565b82525050565b6000604082019050610ea56000830185610e72565b610eb26020830184610e81565b9392505050565b600081519050610ec881610a4f565b92915050565b600060208284031215610ee457610ee3610988565b5b6000610ef284828501610eb9565b91505092915050565b6000606082019050610f106000830186610e72565b610f1d6020830185610e72565b610f2a6040830184610e81565b949350505050565b7f4e487b7100000000000000000000000000000000000000000000000000000000600052601160045260246000fd5b6000610f6c82610c3f565b9150610f7783610c3f565b9250828203905081811115610f8f57610f8e610f32565b5b92915050565b6000604082019050610faa6000830185610e72565b610fb76020830184610e72565b9392505050565b600081519050610fcd81610c49565b92915050565b600060208284031215610fe957610fe8610988565b5b6000610ff784828501610fbe565b91505092915050565b600061100b82610c3f565b91507fffffffffffffffffffffffffffffffffffffffffffffffffffffffffffffffff820361103d5761103c610f32565b5b60018201905091905056fea2646970667358221220b91ae6631cd4a778c2d41fae900e4fa547956b9206b962559334a49ec6ba78ba64736f6c63430008110033446563656e7472616c697a65642045786368616e67652041676772656761746f72",
  "immutableReferences": {},
  "source": "// SPDX-License-Identifier: UNLICENSED\npragma solidity >=0.8.17;\n\nimport \"./FullyLiquidDex.sol\";\nimport \"./NotSoLiquidDex.sol\";\n\ncontract DexAggregator {\n    string public name = \"Decentralized Exchange Aggregator\";\n    FullyLiquidDecentralizedExchange public FullyLiquidDex;\n    NotSoLiquidDecentralizedExchange public NotSoLiquidDex;\n\n    constructor(address _fullyLiquidDex, address _notSoLiquidDex) {\n        FullyLiquidDex = FullyLiquidDecentralizedExchange(_fullyLiquidDex);\n        NotSoLiquidDex = NotSoLiquidDecentralizedExchange(_notSoLiquidDex);\n    }\n\n    function executeSwaps(\n        bool[] memory isLiquid,\n        address[] memory tokenSold,\n        address[] memory tokenBought,\n        uint256[] memory amountSold\n    ) public {\n        address liquidDex = address(FullyLiquidDex);\n        address notSoLiquidDex = address(NotSoLiquidDex);\n        for (uint i = 0; i < isLiquid.length; i++) {\n            if (isLiquid[i]) {\n                IERC20(tokenSold[i]).approve(liquidDex, amountSold[i]);\n                FullyLiquidDex.swap(\n                    tokenSold[i],\n                    tokenBought[i],\n                    amountSold[i]\n                );\n            } else {\n                IERC20(tokenSold[i]).approve(notSoLiquidDex, amountSold[i]);\n                NotSoLiquidDex.swap(\n                    tokenSold[i],\n                    tokenBought[i],\n                    amountSold[i]\n                );\n            }\n            if (i == isLiquid.length - 1) {\n                uint256 liquidDexAllowance = IERC20(tokenBought[i]).allowance(\n                    liquidDex,\n                    address(this)\n                );\n                uint256 notSoLiquidDexAllowance = IERC20(tokenBought[i])\n                    .allowance(notSoLiquidDex, address(this));\n                if (liquidDexAllowance > 0) {\n                    IERC20(tokenBought[i]).transferFrom(\n                        liquidDex,\n                        msg.sender,\n                        liquidDexAllowance\n                    );\n                }\n                if (notSoLiquidDexAllowance > 0) {\n                    IERC20(tokenBought[i]).transferFrom(\n                        notSoLiquidDex,\n                        msg.sender,\n                        notSoLiquidDexAllowance\n                    );\n                }\n            }\n        }\n    }\n}\n",
  "sourcePath": "/home/suprabit/Documents/Diplomski Rad/code/diplomski-rad/contracts/DexAggregator.sol",
  "compiler": {
    "name": "solc",
    "version": "0.8.17+commit.8df45f5f.Emscripten.clang"
  },
  "schemaVersion": "3.4.10",
  "updatedAt": "2023-07-04T10:05:38.047Z",
  "networkType": "ethereum",
  "devdoc": {
    "kind": "dev",
    "methods": {},
    "version": 1
  },
  "userdoc": {
    "kind": "user",
    "methods": {},
    "version": 1
  }
}