{
  "contractName": "FullyLiquidDecentralizedExchange",
  "abi": [
    {
      "inputs": [
        {
          "internalType": "address",
          "name": "_link",
          "type": "address"
        },
        {
          "internalType": "address",
          "name": "_matic",
          "type": "address"
        },
        {
          "internalType": "address",
          "name": "_sushi",
          "type": "address"
        },
        {
          "internalType": "address",
          "name": "_usdc",
          "type": "address"
        },
        {
          "internalType": "address",
          "name": "_wbtc",
          "type": "address"
        }
      ],
      "stateMutability": "nonpayable",
      "type": "constructor"
    },
    {
      "anonymous": false,
      "inputs": [
        {
          "indexed": true,
          "internalType": "address",
          "name": "tokenSold",
          "type": "address"
        },
        {
          "indexed": true,
          "internalType": "address",
          "name": "tokenBought",
          "type": "address"
        },
        {
          "indexed": false,
          "internalType": "uint256",
          "name": "amountSold",
          "type": "uint256"
        },
        {
          "indexed": false,
          "internalType": "uint256",
          "name": "amountBought",
          "type": "uint256"
        }
      ],
      "name": "TokenSwap",
      "type": "event"
    },
    {
      "inputs": [],
      "name": "link",
      "outputs": [
        {
          "internalType": "contract IERC20",
          "name": "",
          "type": "address"
        }
      ],
      "stateMutability": "view",
      "type": "function",
      "constant": true
    },
    {
      "inputs": [],
      "name": "matic",
      "outputs": [
        {
          "internalType": "contract IERC20",
          "name": "",
          "type": "address"
        }
      ],
      "stateMutability": "view",
      "type": "function",
      "constant": true
    },
    {
      "inputs": [],
      "name": "name",
      "outputs": [
        {
          "internalType": "string",
          "name": "",
          "type": "string"
        }
      ],
      "stateMutability": "view",
      "type": "function",
      "constant": true
    },
    {
      "inputs": [],
      "name": "owner",
      "outputs": [
        {
          "internalType": "address",
          "name": "",
          "type": "address"
        }
      ],
      "stateMutability": "view",
      "type": "function",
      "constant": true
    },
    {
      "inputs": [
        {
          "internalType": "address",
          "name": "",
          "type": "address"
        },
        {
          "internalType": "address",
          "name": "",
          "type": "address"
        }
      ],
      "name": "reserves",
      "outputs": [
        {
          "internalType": "uint256",
          "name": "",
          "type": "uint256"
        }
      ],
      "stateMutability": "view",
      "type": "function",
      "constant": true
    },
    {
      "inputs": [
        {
          "internalType": "address",
          "name": "",
          "type": "address"
        }
      ],
      "name": "supportedTokens",
      "outputs": [
        {
          "internalType": "bool",
          "name": "",
          "type": "bool"
        }
      ],
      "stateMutability": "view",
      "type": "function",
      "constant": true
    },
    {
      "inputs": [],
      "name": "sushi",
      "outputs": [
        {
          "internalType": "contract IERC20",
          "name": "",
          "type": "address"
        }
      ],
      "stateMutability": "view",
      "type": "function",
      "constant": true
    },
    {
      "inputs": [],
      "name": "usdc",
      "outputs": [
        {
          "internalType": "contract IERC20",
          "name": "",
          "type": "address"
        }
      ],
      "stateMutability": "view",
      "type": "function",
      "constant": true
    },
    {
      "inputs": [],
      "name": "wbtc",
      "outputs": [
        {
          "internalType": "contract IERC20",
          "name": "",
          "type": "address"
        }
      ],
      "stateMutability": "view",
      "type": "function",
      "constant": true
    },
    {
      "inputs": [
        {
          "internalType": "address",
          "name": "tokenSold",
          "type": "address"
        },
        {
          "internalType": "address",
          "name": "tokenBought",
          "type": "address"
        },
        {
          "internalType": "uint256",
          "name": "amountSold",
          "type": "uint256"
        }
      ],
      "name": "getAmountOut",
      "outputs": [
        {
          "internalType": "uint256",
          "name": "",
          "type": "uint256"
        }
      ],
      "stateMutability": "view",
      "type": "function",
      "constant": true
    },
    {
      "inputs": [
        {
          "internalType": "address",
          "name": "tokenSold",
          "type": "address"
        },
        {
          "internalType": "address",
          "name": "tokenBought",
          "type": "address"
        },
        {
          "internalType": "uint256",
          "name": "newReserve0Amount",
          "type": "uint256"
        },
        {
          "internalType": "uint256",
          "name": "newReserve1Amount",
          "type": "uint256"
        }
      ],
      "name": "executeArbitrage",
      "outputs": [],
      "stateMutability": "nonpayable",
      "type": "function"
    },
    {
      "inputs": [
        {
          "internalType": "address",
          "name": "tokenSold",
          "type": "address"
        },
        {
          "internalType": "address",
          "name": "tokenBought",
          "type": "address"
        },
        {
          "internalType": "uint256",
          "name": "_amountSold",
          "type": "uint256"
        }
      ],
      "name": "swap",
      "outputs": [],
      "stateMutability": "payable",
      "type": "function",
      "payable": true
    }
  ],
  "bytecode": "0x6080604052604051806060016040528060238152602001620027f060239139600090816200002e919062000e51565b503480156200003c57600080fd5b506040516200281338038062002813833981810160405281019062000062919062000fa2565b33600660006101000a81548173ffffffffffffffffffffffffffffffffffffffff021916908373ffffffffffffffffffffffffffffffffffffffff1602179055506001600860003073ffffffffffffffffffffffffffffffffffffffff1673ffffffffffffffffffffffffffffffffffffffff16815260200190815260200160002060006101000a81548160ff0219169083151502179055506001600860008773ffffffffffffffffffffffffffffffffffffffff1673ffffffffffffffffffffffffffffffffffffffff16815260200190815260200160002060006101000a81548160ff0219169083151502179055506001600860008673ffffffffffffffffffffffffffffffffffffffff1673ffffffffffffffffffffffffffffffffffffffff16815260200190815260200160002060006101000a81548160ff0219169083151502179055506001600860008573ffffffffffffffffffffffffffffffffffffffff1673ffffffffffffffffffffffffffffffffffffffff16815260200190815260200160002060006101000a81548160ff0219169083151502179055506001600860008473ffffffffffffffffffffffffffffffffffffffff1673ffffffffffffffffffffffffffffffffffffffff16815260200190815260200160002060006101000a81548160ff0219169083151502179055506001600860008373ffffffffffffffffffffffffffffffffffffffff1673ffffffffffffffffffffffffffffffffffffffff16815260200190815260200160002060006101000a81548160ff02191690831515021790555084600160006101000a81548173ffffffffffffffffffffffffffffffffffffffff021916908373ffffffffffffffffffffffffffffffffffffffff16021790555083600260006101000a81548173ffffffffffffffffffffffffffffffffffffffff021916908373ffffffffffffffffffffffffffffffffffffffff16021790555082600360006101000a81548173ffffffffffffffffffffffffffffffffffffffff021916908373ffffffffffffffffffffffffffffffffffffffff16021790555081600460006101000a81548173ffffffffffffffffffffffffffffffffffffffff021916908373ffffffffffffffffffffffffffffffffffffffff16021790555080600560006101000a81548173ffffffffffffffffffffffffffffffffffffffff021916908373ffffffffffffffffffffffffffffffffffffffff16021790555069148a616ad7f95aa00000600760003073ffffffffffffffffffffffffffffffffffffffff1673ffffffffffffffffffffffffffffffffffffffff1681526020019081526020016000206000600460009054906101000a900473ffffffffffffffffffffffffffffffffffffffff1673ffffffffffffffffffffffffffffffffffffffff1673ffffffffffffffffffffffffffffffffffffffff168152602001908152602001600020819055506a8c9ee6775415ccea00000060076000600460009054906101000a900473ffffffffffffffffffffffffffffffffffffffff1673ffffffffffffffffffffffffffffffffffffffff1673ffffffffffffffffffffffffffffffffffffffff16815260200190815260200160002060003073ffffffffffffffffffffffffffffffffffffffff1673ffffffffffffffffffffffffffffffffffffffff1681526020019081526020016000208190555069943b1377290cbd80000060076000600160009054906101000a900473ffffffffffffffffffffffffffffffffffffffff1673ffffffffffffffffffffffffffffffffffffffff1673ffffffffffffffffffffffffffffffffffffffff1681526020019081526020016000206000600460009054906101000a900473ffffffffffffffffffffffffffffffffffffffff1673ffffffffffffffffffffffffffffffffffffffff1673ffffffffffffffffffffffffffffffffffffffff168152602001908152602001600020819055506a0422ca8b0a00a42500000060076000600460009054906101000a900473ffffffffffffffffffffffffffffffffffffffff1673ffffffffffffffffffffffffffffffffffffffff1673ffffffffffffffffffffffffffffffffffffffff1681526020019081526020016000206000600160009054906101000a900473ffffffffffffffffffffffffffffffffffffffff1673ffffffffffffffffffffffffffffffffffffffff1673ffffffffffffffffffffffffffffffffffffffff1681526020019081526020016000208190555069be951906eba2aa80000060076000600260009054906101000a900473ffffffffffffffffffffffffffffffffffffffff1673ffffffffffffffffffffffffffffffffffffffff1673ffffffffffffffffffffffffffffffffffffffff1681526020019081526020016000206000600460009054906101000a900473ffffffffffffffffffffffffffffffffffffffff1673ffffffffffffffffffffffffffffffffffffffff1673ffffffffffffffffffffffffffffffffffffffff1681526020019081526020016000208190555069d3c21bcecceda100000060076000600460009054906101000a900473ffffffffffffffffffffffffffffffffffffffff1673ffffffffffffffffffffffffffffffffffffffff1673ffffffffffffffffffffffffffffffffffffffff1681526020019081526020016000206000600260009054906101000a900473ffffffffffffffffffffffffffffffffffffffff1673ffffffffffffffffffffffffffffffffffffffff1673ffffffffffffffffffffffffffffffffffffffff1681526020019081526020016000208190555069c92b9a6adc4825c0000060076000600360009054906101000a900473ffffffffffffffffffffffffffffffffffffffff1673ffffffffffffffffffffffffffffffffffffffff1673ffffffffffffffffffffffffffffffffffffffff1681526020019081526020016000206000600460009054906101000a900473ffffffffffffffffffffffffffffffffffffffff1673ffffffffffffffffffffffffffffffffffffffff1673ffffffffffffffffffffffffffffffffffffffff1681526020019081526020016000208190555069d3c21bcecceda100000060076000600460009054906101000a900473ffffffffffffffffffffffffffffffffffffffff1673ffffffffffffffffffffffffffffffffffffffff1673ffffffffffffffffffffffffffffffffffffffff1681526020019081526020016000206000600360009054906101000a900473ffffffffffffffffffffffffffffffffffffffff1673ffffffffffffffffffffffffffffffffffffffff1673ffffffffffffffffffffffffffffffffffffffff1681526020019081526020016000208190555068c072258f4b3cb8000060076000600560009054906101000a900473ffffffffffffffffffffffffffffffffffffffff1673ffffffffffffffffffffffffffffffffffffffff1673ffffffffffffffffffffffffffffffffffffffff1681526020019081526020016000206000600460009054906101000a900473ffffffffffffffffffffffffffffffffffffffff1673ffffffffffffffffffffffffffffffffffffffff1673ffffffffffffffffffffffffffffffffffffffff168152602001908152602001600020819055506a52b7d2dcc80cd2e400000060076000600460009054906101000a900473ffffffffffffffffffffffffffffffffffffffff1673ffffffffffffffffffffffffffffffffffffffff1673ffffffffffffffffffffffffffffffffffffffff1681526020019081526020016000206000600560009054906101000a900473ffffffffffffffffffffffffffffffffffffffff1673ffffffffffffffffffffffffffffffffffffffff1673ffffffffffffffffffffffffffffffffffffffff1681526020019081526020016000208190555050505050506200102a565b600081519050919050565b7f4e487b7100000000000000000000000000000000000000000000000000000000600052604160045260246000fd5b7f4e487b7100000000000000000000000000000000000000000000000000000000600052602260045260246000fd5b6000600282049050600182168062000c5957607f821691505b60208210810362000c6f5762000c6e62000c11565b5b50919050565b60008190508160005260206000209050919050565b60006020601f8301049050919050565b600082821b905092915050565b60006008830262000cd97fffffffffffffffffffffffffffffffffffffffffffffffffffffffffffffffff8262000c9a565b62000ce5868362000c9a565b95508019841693508086168417925050509392505050565b6000819050919050565b6000819050919050565b600062000d3262000d2c62000d268462000cfd565b62000d07565b62000cfd565b9050919050565b6000819050919050565b62000d4e8362000d11565b62000d6662000d5d8262000d39565b84845462000ca7565b825550505050565b600090565b62000d7d62000d6e565b62000d8a81848462000d43565b505050565b5b8181101562000db25762000da660008262000d73565b60018101905062000d90565b5050565b601f82111562000e015762000dcb8162000c75565b62000dd68462000c8a565b8101602085101562000de6578190505b62000dfe62000df58562000c8a565b83018262000d8f565b50505b505050565b600082821c905092915050565b600062000e266000198460080262000e06565b1980831691505092915050565b600062000e41838362000e13565b9150826002028217905092915050565b62000e5c8262000bd7565b67ffffffffffffffff81111562000e785762000e7762000be2565b5b62000e84825462000c40565b62000e9182828562000db6565b600060209050601f83116001811462000ec9576000841562000eb4578287015190505b62000ec0858262000e33565b86555062000f30565b601f19841662000ed98662000c75565b60005b8281101562000f035784890151825560018201915060208501945060208101905062000edc565b8683101562000f23578489015162000f1f601f89168262000e13565b8355505b6001600288020188555050505b505050505050565b600080fd5b600073ffffffffffffffffffffffffffffffffffffffff82169050919050565b600062000f6a8262000f3d565b9050919050565b62000f7c8162000f5d565b811462000f8857600080fd5b50565b60008151905062000f9c8162000f71565b92915050565b600080600080600060a0868803121562000fc15762000fc062000f38565b5b600062000fd18882890162000f8b565b955050602062000fe48882890162000f8b565b945050604062000ff78882890162000f8b565b93505060606200100a8882890162000f8b565b92505060806200101d8882890162000f8b565b9150509295509295909350565b6117b6806200103a6000396000f3fe6080604052600436106100a75760003560e01c80634aa06652116100645780634aa06652146101ac57806368c4ac26146101e95780638da5cb5b14610226578063b6b0b09714610251578063df791e501461027c578063ea4afc5414610298576100a7565b806306fdde03146100ac5780630a087903146100d757806318820afa146101025780631c4695f41461012b5780633cdc5389146101565780633e413bee14610181575b600080fd5b3480156100b857600080fd5b506100c16102d5565b6040516100ce91906110db565b60405180910390f35b3480156100e357600080fd5b506100ec610363565b6040516100f9919061117c565b60405180910390f35b34801561010e57600080fd5b5061012960048036038101906101249190611210565b610389565b005b34801561013757600080fd5b50610140610572565b60405161014d919061117c565b60405180910390f35b34801561016257600080fd5b5061016b610598565b604051610178919061117c565b60405180910390f35b34801561018d57600080fd5b506101966105be565b6040516101a3919061117c565b60405180910390f35b3480156101b857600080fd5b506101d360048036038101906101ce9190611277565b6105e4565b6040516101e091906112d9565b60405180910390f35b3480156101f557600080fd5b50610210600480360381019061020b91906112f4565b61093d565b60405161021d919061133c565b60405180910390f35b34801561023257600080fd5b5061023b61095d565b6040516102489190611366565b60405180910390f35b34801561025d57600080fd5b50610266610983565b604051610273919061117c565b60405180910390f35b61029660048036038101906102919190611277565b6109a9565b005b3480156102a457600080fd5b506102bf60048036038101906102ba9190611381565b611026565b6040516102cc91906112d9565b60405180910390f35b600080546102e2906113f0565b80601f016020809104026020016040519081016040528092919081815260200182805461030e906113f0565b801561035b5780601f106103305761010080835404028352916020019161035b565b820191906000526020600020905b81548152906001019060200180831161033e57829003601f168201915b505050505081565b600360009054906101000a900473ffffffffffffffffffffffffffffffffffffffff1681565b600860008573ffffffffffffffffffffffffffffffffffffffff1673ffffffffffffffffffffffffffffffffffffffff16815260200190815260200160002060009054906101000a900460ff16801561042b5750600860008473ffffffffffffffffffffffffffffffffffffffff1673ffffffffffffffffffffffffffffffffffffffff16815260200190815260200160002060009054906101000a900460ff165b61046a576040517f08c379a00000000000000000000000000000000000000000000000000000000081526004016104619061146d565b60405180910390fd5b81600760008673ffffffffffffffffffffffffffffffffffffffff1673ffffffffffffffffffffffffffffffffffffffff16815260200190815260200160002060008573ffffffffffffffffffffffffffffffffffffffff1673ffffffffffffffffffffffffffffffffffffffff1681526020019081526020016000208190555080600760008573ffffffffffffffffffffffffffffffffffffffff1673ffffffffffffffffffffffffffffffffffffffff16815260200190815260200160002060008673ffffffffffffffffffffffffffffffffffffffff1673ffffffffffffffffffffffffffffffffffffffff1681526020019081526020016000208190555050505050565b600160009054906101000a900473ffffffffffffffffffffffffffffffffffffffff1681565b600560009054906101000a900473ffffffffffffffffffffffffffffffffffffffff1681565b600460009054906101000a900473ffffffffffffffffffffffffffffffffffffffff1681565b6000600860008573ffffffffffffffffffffffffffffffffffffffff1673ffffffffffffffffffffffffffffffffffffffff16815260200190815260200160002060009054906101000a900460ff1680156106885750600860008473ffffffffffffffffffffffffffffffffffffffff1673ffffffffffffffffffffffffffffffffffffffff16815260200190815260200160002060009054906101000a900460ff165b6106c7576040517f08c379a00000000000000000000000000000000000000000000000000000000081526004016106be9061146d565b60405180910390fd5b6000600760008673ffffffffffffffffffffffffffffffffffffffff1673ffffffffffffffffffffffffffffffffffffffff16815260200190815260200160002060008573ffffffffffffffffffffffffffffffffffffffff1673ffffffffffffffffffffffffffffffffffffffff168152602001908152602001600020541180156107cf57506000600760008573ffffffffffffffffffffffffffffffffffffffff1673ffffffffffffffffffffffffffffffffffffffff16815260200190815260200160002060008673ffffffffffffffffffffffffffffffffffffffff1673ffffffffffffffffffffffffffffffffffffffff16815260200190815260200160002054115b61080e576040517f08c379a0000000000000000000000000000000000000000000000000000000008152600401610805906114d9565b60405180910390fd5b600082600760008673ffffffffffffffffffffffffffffffffffffffff1673ffffffffffffffffffffffffffffffffffffffff16815260200190815260200160002060008773ffffffffffffffffffffffffffffffffffffffff1673ffffffffffffffffffffffffffffffffffffffff168152602001908152602001600020546108989190611528565b9050600083600760008873ffffffffffffffffffffffffffffffffffffffff1673ffffffffffffffffffffffffffffffffffffffff16815260200190815260200160002060008773ffffffffffffffffffffffffffffffffffffffff1673ffffffffffffffffffffffffffffffffffffffff16815260200190815260200160002054610924919061156a565b9050808261093291906115cd565b925050509392505050565b60086020528060005260406000206000915054906101000a900460ff1681565b600660009054906101000a900473ffffffffffffffffffffffffffffffffffffffff1681565b600260009054906101000a900473ffffffffffffffffffffffffffffffffffffffff1681565b600860008473ffffffffffffffffffffffffffffffffffffffff1673ffffffffffffffffffffffffffffffffffffffff16815260200190815260200160002060009054906101000a900460ff168015610a4b5750600860008373ffffffffffffffffffffffffffffffffffffffff1673ffffffffffffffffffffffffffffffffffffffff16815260200190815260200160002060009054906101000a900460ff165b610a8a576040517f08c379a0000000000000000000000000000000000000000000000000000000008152600401610a819061146d565b60405180910390fd5b60008190506000610a9c8585846105e4565b905060008111610ae1576040517f08c379a0000000000000000000000000000000000000000000000000000000008152600401610ad8906114d9565b60405180910390fd5b3073ffffffffffffffffffffffffffffffffffffffff168473ffffffffffffffffffffffffffffffffffffffff1603610c1f578473ffffffffffffffffffffffffffffffffffffffff166323b872dd3330856040518463ffffffff1660e01b8152600401610b51939291906115fe565b6020604051808303816000875af1158015610b70573d6000803e3d6000fd5b505050506040513d601f19601f82011682018060405250810190610b949190611661565b610bd3576040517f08c379a0000000000000000000000000000000000000000000000000000000008152600401610bca906116da565b60405180910390fd5b3373ffffffffffffffffffffffffffffffffffffffff166108fc829081150290604051600060405180830381858888f19350505050158015610c19573d6000803e3d6000fd5b50610e92565b3073ffffffffffffffffffffffffffffffffffffffff168573ffffffffffffffffffffffffffffffffffffffff1603610d14578373ffffffffffffffffffffffffffffffffffffffff1663a9059cbb33836040518363ffffffff1660e01b8152600401610c8d9291906116fa565b6020604051808303816000875af1158015610cac573d6000803e3d6000fd5b505050506040513d601f19601f82011682018060405250810190610cd09190611661565b610d0f576040517f08c379a0000000000000000000000000000000000000000000000000000000008152600401610d06906116da565b60405180910390fd5b610e91565b8473ffffffffffffffffffffffffffffffffffffffff166323b872dd3330856040518463ffffffff1660e01b8152600401610d51939291906115fe565b6020604051808303816000875af1158015610d70573d6000803e3d6000fd5b505050506040513d601f19601f82011682018060405250810190610d949190611661565b610dd3576040517f08c379a0000000000000000000000000000000000000000000000000000000008152600401610dca906116da565b60405180910390fd5b8373ffffffffffffffffffffffffffffffffffffffff1663095ea7b333836040518363ffffffff1660e01b8152600401610e0e9291906116fa565b6020604051808303816000875af1158015610e2d573d6000803e3d6000fd5b505050506040513d601f19601f82011682018060405250810190610e519190611661565b610e90576040517f08c379a0000000000000000000000000000000000000000000000000000000008152600401610e87906116da565b60405180910390fd5b5b5b81600760008773ffffffffffffffffffffffffffffffffffffffff1673ffffffffffffffffffffffffffffffffffffffff16815260200190815260200160002060008673ffffffffffffffffffffffffffffffffffffffff1673ffffffffffffffffffffffffffffffffffffffff1681526020019081526020016000206000828254610f1e919061156a565b9250508190555080600760008673ffffffffffffffffffffffffffffffffffffffff1673ffffffffffffffffffffffffffffffffffffffff16815260200190815260200160002060008773ffffffffffffffffffffffffffffffffffffffff1673ffffffffffffffffffffffffffffffffffffffff1681526020019081526020016000206000828254610fb19190611723565b925050819055508373ffffffffffffffffffffffffffffffffffffffff168573ffffffffffffffffffffffffffffffffffffffff167f1f2c1de040604eaf4a8c72b05bd7c16fae213f15cbde69ecf70dd3b97fef1f2f8484604051611017929190611757565b60405180910390a35050505050565b6007602052816000526040600020602052806000526040600020600091509150505481565b600081519050919050565b600082825260208201905092915050565b60005b8381101561108557808201518184015260208101905061106a565b60008484015250505050565b6000601f19601f8301169050919050565b60006110ad8261104b565b6110b78185611056565b93506110c7818560208601611067565b6110d081611091565b840191505092915050565b600060208201905081810360008301526110f581846110a2565b905092915050565b600073ffffffffffffffffffffffffffffffffffffffff82169050919050565b6000819050919050565b600061114261113d611138846110fd565b61111d565b6110fd565b9050919050565b600061115482611127565b9050919050565b600061116682611149565b9050919050565b6111768161115b565b82525050565b6000602082019050611191600083018461116d565b92915050565b600080fd5b60006111a7826110fd565b9050919050565b6111b78161119c565b81146111c257600080fd5b50565b6000813590506111d4816111ae565b92915050565b6000819050919050565b6111ed816111da565b81146111f857600080fd5b50565b60008135905061120a816111e4565b92915050565b6000806000806080858703121561122a57611229611197565b5b6000611238878288016111c5565b9450506020611249878288016111c5565b935050604061125a878288016111fb565b925050606061126b878288016111fb565b91505092959194509250565b6000806000606084860312156112905761128f611197565b5b600061129e868287016111c5565b93505060206112af868287016111c5565b92505060406112c0868287016111fb565b9150509250925092565b6112d3816111da565b82525050565b60006020820190506112ee60008301846112ca565b92915050565b60006020828403121561130a57611309611197565b5b6000611318848285016111c5565b91505092915050565b60008115159050919050565b61133681611321565b82525050565b6000602082019050611351600083018461132d565b92915050565b6113608161119c565b82525050565b600060208201905061137b6000830184611357565b92915050565b6000806040838503121561139857611397611197565b5b60006113a6858286016111c5565b92505060206113b7858286016111c5565b9150509250929050565b7f4e487b7100000000000000000000000000000000000000000000000000000000600052602260045260246000fd5b6000600282049050600182168061140857607f821691505b60208210810361141b5761141a6113c1565b5b50919050565b7f496e76616c696420746f6b656e20706169720000000000000000000000000000600082015250565b6000611457601283611056565b915061146282611421565b602082019050919050565b600060208201905081810360008301526114868161144a565b9050919050565b7f4e6f7420656e6f756768206c697175696469747920696e2074686520706f6f6c600082015250565b60006114c3602083611056565b91506114ce8261148d565b602082019050919050565b600060208201905081810360008301526114f2816114b6565b9050919050565b7f4e487b7100000000000000000000000000000000000000000000000000000000600052601160045260246000fd5b6000611533826111da565b915061153e836111da565b925082820261154c816111da565b91508282048414831517611563576115626114f9565b5b5092915050565b6000611575826111da565b9150611580836111da565b9250828201905080821115611598576115976114f9565b5b92915050565b7f4e487b7100000000000000000000000000000000000000000000000000000000600052601260045260246000fd5b60006115d8826111da565b91506115e3836111da565b9250826115f3576115f261159e565b5b828204905092915050565b60006060820190506116136000830186611357565b6116206020830185611357565b61162d60408301846112ca565b949350505050565b61163e81611321565b811461164957600080fd5b50565b60008151905061165b81611635565b92915050565b60006020828403121561167757611676611197565b5b60006116858482850161164c565b91505092915050565b7f546f6b656e207472616e73666572206661696c65640000000000000000000000600082015250565b60006116c4601583611056565b91506116cf8261168e565b602082019050919050565b600060208201905081810360008301526116f3816116b7565b9050919050565b600060408201905061170f6000830185611357565b61171c60208301846112ca565b9392505050565b600061172e826111da565b9150611739836111da565b9250828203905081811115611751576117506114f9565b5b92915050565b600060408201905061176c60008301856112ca565b61177960208301846112ca565b939250505056fea264697066735822122050f9887308860105135234c89a3862c1e2d10e187c05856f1d6c2ff94d26c8a664736f6c6343000811003346756c6c79204c697175696420446563656e7472616c697a65642045786368616e6765",
  "immutableReferences": {},
  "source": "// SPDX-License-Identifier: UNLICENSED\npragma solidity >=0.8.17;\n\nimport \"./ERC20/Link.sol\";\nimport \"./ERC20/Matic.sol\";\nimport \"./ERC20/Sushi.sol\";\nimport \"./ERC20/Usdc.sol\";\nimport \"./ERC20/Wbtc.sol\";\n\nimport \"../node_modules/@openzeppelin/contracts/token/ERC20/IERC20.sol\";\n\ncontract FullyLiquidDecentralizedExchange {\n    string public name = \"Fully Liquid Decentralized Exchange\";\n    IERC20 public link;\n    IERC20 public matic;\n    IERC20 public sushi;\n    IERC20 public usdc;\n    IERC20 public wbtc;\n\n    address public owner;\n    mapping(address => mapping(address => uint256)) public reserves;\n    // mapping for supported tokens\n    mapping(address => bool) public supportedTokens;\n\n    event TokenSwap(\n        address indexed tokenSold,\n        address indexed tokenBought,\n        uint256 amountSold,\n        uint256 amountBought\n    );\n\n    constructor(\n        address _link,\n        address _matic,\n        address _sushi,\n        address _usdc,\n        address _wbtc\n    ) {\n        owner = msg.sender;\n        supportedTokens[address(this)] = true;\n        supportedTokens[address(_link)] = true;\n        supportedTokens[address(_matic)] = true;\n        supportedTokens[address(_sushi)] = true;\n        supportedTokens[address(_usdc)] = true;\n        supportedTokens[address(_wbtc)] = true;\n\n        link = IERC20(_link);\n        matic = IERC20(_matic);\n        sushi = IERC20(_sushi);\n        usdc = IERC20(_usdc);\n        wbtc = IERC20(_wbtc);\n\n        // x * y = k\n        reserves[address(this)][address(usdc)] = 97000000000000000000000;\n        reserves[address(usdc)][address(this)] = 170000000000000000000000000;\n        // x (eth) = 97 000\n        // y (usdc) = 170 000 000\n        // k (constant product) = 164 900 000 000\n        // price per ETH = 1750\n\n        reserves[address(link)][address(usdc)] = 700000000000000000000000;\n        reserves[address(usdc)][address(link)] = 5000000000000000000000000;\n        // price per LINK = 7,14\n\n        reserves[address(matic)][address(usdc)] = 900000000000000000000000;\n        reserves[address(usdc)][address(matic)] = 1000000000000000000000000;\n        // price per MATIC = 1,11\n\n        reserves[address(sushi)][address(usdc)] = 950000000000000000000000;\n        reserves[address(usdc)][address(sushi)] = 1000000000000000000000000;\n        // price per SUSHI = 1,15\n\n        reserves[address(wbtc)][address(usdc)] = 3550000000000000000000;\n        reserves[address(usdc)][address(wbtc)] = 100000000000000000000000000;\n        // price per WBTC = 28 170\n    }\n\n    function getAmountOut(\n        address tokenSold,\n        address tokenBought,\n        uint256 amountSold\n    ) public view returns (uint256) {\n        require(\n            supportedTokens[tokenSold] && supportedTokens[tokenBought],\n            \"Invalid token pair\"\n        );\n        require(\n            reserves[tokenSold][tokenBought] > 0 &&\n                reserves[tokenBought][tokenSold] > 0,\n            \"Not enough liquidity in the pool\"\n        );\n        // [ETH][DAI] = 9 700\n        // [DAI][ETH] = 17 000 000\n        uint256 numerator = reserves[tokenBought][tokenSold] * amountSold;\n        uint256 denominator = reserves[tokenSold][tokenBought] + amountSold;\n        return numerator / denominator;\n    }\n\n    function executeArbitrage(\n        address tokenSold,\n        address tokenBought,\n        uint256 newReserve0Amount,\n        uint256 newReserve1Amount\n    ) public {\n        require(\n            supportedTokens[tokenSold] && supportedTokens[tokenBought],\n            \"Invalid token pair\"\n        );\n\n        reserves[tokenSold][tokenBought] = newReserve0Amount;\n        reserves[tokenBought][tokenSold] = newReserve1Amount;\n    }\n\n    function swap(\n        address tokenSold,\n        address tokenBought,\n        uint256 _amountSold\n    ) public payable {\n        require(\n            supportedTokens[tokenSold] && supportedTokens[tokenBought],\n            \"Invalid token pair\"\n        );\n        // uint256 amountSold = msg.value;\n        uint256 amountSold = _amountSold;\n        uint256 amountBought = getAmountOut(tokenSold, tokenBought, amountSold);\n        require(amountBought > 0, \"Not enough liquidity in the pool\");\n\n        if (tokenBought == address(this)) {\n            require(\n                IERC20(tokenSold).transferFrom(\n                    msg.sender,\n                    address(this),\n                    amountSold\n                ),\n                \"Token transfer failed\"\n            );\n            payable(msg.sender).transfer(amountBought);\n        } else if (tokenSold == address(this)) {\n            require(\n                IERC20(tokenBought).transfer(msg.sender, amountBought),\n                \"Token transfer failed\"\n            );\n        } else {\n            require(\n                IERC20(tokenSold).transferFrom(\n                    msg.sender,\n                    address(this),\n                    amountSold\n                ),\n                \"Token transfer failed\"\n            );\n            require(\n                IERC20(tokenBought).approve(msg.sender, amountBought),\n                \"Token transfer failed\"\n            );\n        }\n        reserves[tokenSold][tokenBought] += amountSold;\n        reserves[tokenBought][tokenSold] -= amountBought;\n        emit TokenSwap(tokenSold, tokenBought, amountSold, amountBought);\n    }\n}\n",
  "sourcePath": "/home/suprabit/Documents/Diplomski Rad/code/diplomski-rad/contracts/FullyLiquidDex.sol",
  "compiler": {
    "name": "solc",
    "version": "0.8.17+commit.8df45f5f.Emscripten.clang"
  },
  "schemaVersion": "3.4.10",
  "updatedAt": "2023-07-04T10:05:38.057Z",
  "networkType": "ethereum",
  "devdoc": {
    "kind": "dev",
    "methods": {},
    "version": 1
  },
  "userdoc": {
    "kind": "user",
    "methods": {},
    "version": 1
  }
}