{
  "contractName": "NotSoLiquidDecentralizedExchange",
  "abi": [
    {
      "inputs": [
        {
          "internalType": "address",
          "name": "_link",
          "type": "address"
        },
        {
          "internalType": "address",
          "name": "_matic",
          "type": "address"
        },
        {
          "internalType": "address",
          "name": "_sushi",
          "type": "address"
        },
        {
          "internalType": "address",
          "name": "_usdc",
          "type": "address"
        },
        {
          "internalType": "address",
          "name": "_wbtc",
          "type": "address"
        }
      ],
      "stateMutability": "nonpayable",
      "type": "constructor"
    },
    {
      "anonymous": false,
      "inputs": [
        {
          "indexed": true,
          "internalType": "address",
          "name": "tokenSold",
          "type": "address"
        },
        {
          "indexed": true,
          "internalType": "address",
          "name": "tokenBought",
          "type": "address"
        },
        {
          "indexed": false,
          "internalType": "uint256",
          "name": "amountSold",
          "type": "uint256"
        },
        {
          "indexed": false,
          "internalType": "uint256",
          "name": "amountBought",
          "type": "uint256"
        }
      ],
      "name": "TokenSwap",
      "type": "event"
    },
    {
      "inputs": [],
      "name": "link",
      "outputs": [
        {
          "internalType": "contract IERC20",
          "name": "",
          "type": "address"
        }
      ],
      "stateMutability": "view",
      "type": "function",
      "constant": true
    },
    {
      "inputs": [],
      "name": "matic",
      "outputs": [
        {
          "internalType": "contract IERC20",
          "name": "",
          "type": "address"
        }
      ],
      "stateMutability": "view",
      "type": "function",
      "constant": true
    },
    {
      "inputs": [],
      "name": "name",
      "outputs": [
        {
          "internalType": "string",
          "name": "",
          "type": "string"
        }
      ],
      "stateMutability": "view",
      "type": "function",
      "constant": true
    },
    {
      "inputs": [],
      "name": "owner",
      "outputs": [
        {
          "internalType": "address",
          "name": "",
          "type": "address"
        }
      ],
      "stateMutability": "view",
      "type": "function",
      "constant": true
    },
    {
      "inputs": [
        {
          "internalType": "address",
          "name": "",
          "type": "address"
        },
        {
          "internalType": "address",
          "name": "",
          "type": "address"
        }
      ],
      "name": "reserves",
      "outputs": [
        {
          "internalType": "uint256",
          "name": "",
          "type": "uint256"
        }
      ],
      "stateMutability": "view",
      "type": "function",
      "constant": true
    },
    {
      "inputs": [
        {
          "internalType": "address",
          "name": "",
          "type": "address"
        }
      ],
      "name": "supportedTokens",
      "outputs": [
        {
          "internalType": "bool",
          "name": "",
          "type": "bool"
        }
      ],
      "stateMutability": "view",
      "type": "function",
      "constant": true
    },
    {
      "inputs": [],
      "name": "sushi",
      "outputs": [
        {
          "internalType": "contract IERC20",
          "name": "",
          "type": "address"
        }
      ],
      "stateMutability": "view",
      "type": "function",
      "constant": true
    },
    {
      "inputs": [
        {
          "internalType": "address",
          "name": "",
          "type": "address"
        }
      ],
      "name": "tokens",
      "outputs": [
        {
          "internalType": "contract IERC20",
          "name": "",
          "type": "address"
        }
      ],
      "stateMutability": "view",
      "type": "function",
      "constant": true
    },
    {
      "inputs": [],
      "name": "usdc",
      "outputs": [
        {
          "internalType": "contract IERC20",
          "name": "",
          "type": "address"
        }
      ],
      "stateMutability": "view",
      "type": "function",
      "constant": true
    },
    {
      "inputs": [],
      "name": "wbtc",
      "outputs": [
        {
          "internalType": "contract IERC20",
          "name": "",
          "type": "address"
        }
      ],
      "stateMutability": "view",
      "type": "function",
      "constant": true
    },
    {
      "inputs": [
        {
          "internalType": "address",
          "name": "tokenSold",
          "type": "address"
        },
        {
          "internalType": "address",
          "name": "tokenBought",
          "type": "address"
        },
        {
          "internalType": "uint256",
          "name": "amountSold",
          "type": "uint256"
        }
      ],
      "name": "getAmountOut",
      "outputs": [
        {
          "internalType": "uint256",
          "name": "",
          "type": "uint256"
        }
      ],
      "stateMutability": "view",
      "type": "function",
      "constant": true
    },
    {
      "inputs": [
        {
          "internalType": "address",
          "name": "tokenSold",
          "type": "address"
        },
        {
          "internalType": "address",
          "name": "tokenBought",
          "type": "address"
        },
        {
          "internalType": "uint256",
          "name": "amount0",
          "type": "uint256"
        },
        {
          "internalType": "uint256",
          "name": "amount1",
          "type": "uint256"
        }
      ],
      "name": "executeArbitrage",
      "outputs": [],
      "stateMutability": "nonpayable",
      "type": "function"
    },
    {
      "inputs": [
        {
          "internalType": "address",
          "name": "tokenSold",
          "type": "address"
        },
        {
          "internalType": "address",
          "name": "tokenBought",
          "type": "address"
        },
        {
          "internalType": "uint256",
          "name": "_amountSold",
          "type": "uint256"
        }
      ],
      "name": "swap",
      "outputs": [],
      "stateMutability": "payable",
      "type": "function",
      "payable": true
    }
  ],
  "bytecode": "0x608060405260405180606001604052806024815260200162002c4360249139600090816200002e919062001219565b503480156200003c57600080fd5b5060405162002c6738038062002c6783398181016040528101906200006291906200136a565b33600660006101000a81548173ffffffffffffffffffffffffffffffffffffffff021916908373ffffffffffffffffffffffffffffffffffffffff1602179055506001600960003073ffffffffffffffffffffffffffffffffffffffff1673ffffffffffffffffffffffffffffffffffffffff16815260200190815260200160002060006101000a81548160ff0219169083151502179055506001600960008773ffffffffffffffffffffffffffffffffffffffff1673ffffffffffffffffffffffffffffffffffffffff16815260200190815260200160002060006101000a81548160ff0219169083151502179055506001600960008673ffffffffffffffffffffffffffffffffffffffff1673ffffffffffffffffffffffffffffffffffffffff16815260200190815260200160002060006101000a81548160ff0219169083151502179055506001600960008573ffffffffffffffffffffffffffffffffffffffff1673ffffffffffffffffffffffffffffffffffffffff16815260200190815260200160002060006101000a81548160ff0219169083151502179055506001600960008473ffffffffffffffffffffffffffffffffffffffff1673ffffffffffffffffffffffffffffffffffffffff16815260200190815260200160002060006101000a81548160ff0219169083151502179055506001600960008373ffffffffffffffffffffffffffffffffffffffff1673ffffffffffffffffffffffffffffffffffffffff16815260200190815260200160002060006101000a81548160ff02191690831515021790555084600160006101000a81548173ffffffffffffffffffffffffffffffffffffffff021916908373ffffffffffffffffffffffffffffffffffffffff16021790555083600260006101000a81548173ffffffffffffffffffffffffffffffffffffffff021916908373ffffffffffffffffffffffffffffffffffffffff16021790555082600360006101000a81548173ffffffffffffffffffffffffffffffffffffffff021916908373ffffffffffffffffffffffffffffffffffffffff16021790555081600460006101000a81548173ffffffffffffffffffffffffffffffffffffffff021916908373ffffffffffffffffffffffffffffffffffffffff16021790555080600560006101000a81548173ffffffffffffffffffffffffffffffffffffffff021916908373ffffffffffffffffffffffffffffffffffffffff160217905550600260009054906101000a900473ffffffffffffffffffffffffffffffffffffffff1660086000600260009054906101000a900473ffffffffffffffffffffffffffffffffffffffff1673ffffffffffffffffffffffffffffffffffffffff1673ffffffffffffffffffffffffffffffffffffffff16815260200190815260200160002060006101000a81548173ffffffffffffffffffffffffffffffffffffffff021916908373ffffffffffffffffffffffffffffffffffffffff160217905550600160009054906101000a900473ffffffffffffffffffffffffffffffffffffffff1660086000600160009054906101000a900473ffffffffffffffffffffffffffffffffffffffff1673ffffffffffffffffffffffffffffffffffffffff1673ffffffffffffffffffffffffffffffffffffffff16815260200190815260200160002060006101000a81548173ffffffffffffffffffffffffffffffffffffffff021916908373ffffffffffffffffffffffffffffffffffffffff160217905550600360009054906101000a900473ffffffffffffffffffffffffffffffffffffffff1660086000600360009054906101000a900473ffffffffffffffffffffffffffffffffffffffff1673ffffffffffffffffffffffffffffffffffffffff1673ffffffffffffffffffffffffffffffffffffffff16815260200190815260200160002060006101000a81548173ffffffffffffffffffffffffffffffffffffffff021916908373ffffffffffffffffffffffffffffffffffffffff160217905550600460009054906101000a900473ffffffffffffffffffffffffffffffffffffffff1660086000600460009054906101000a900473ffffffffffffffffffffffffffffffffffffffff1673ffffffffffffffffffffffffffffffffffffffff1673ffffffffffffffffffffffffffffffffffffffff16815260200190815260200160002060006101000a81548173ffffffffffffffffffffffffffffffffffffffff021916908373ffffffffffffffffffffffffffffffffffffffff160217905550600560009054906101000a900473ffffffffffffffffffffffffffffffffffffffff1660086000600560009054906101000a900473ffffffffffffffffffffffffffffffffffffffff1673ffffffffffffffffffffffffffffffffffffffff1673ffffffffffffffffffffffffffffffffffffffff16815260200190815260200160002060006101000a81548173ffffffffffffffffffffffffffffffffffffffff021916908373ffffffffffffffffffffffffffffffffffffffff1602179055506834957444b840e80000600760003073ffffffffffffffffffffffffffffffffffffffff1673ffffffffffffffffffffffffffffffffffffffff1681526020019081526020016000206000600460009054906101000a900473ffffffffffffffffffffffffffffffffffffffff1673ffffffffffffffffffffffffffffffffffffffff1673ffffffffffffffffffffffffffffffffffffffff168152602001908152602001600020819055506a0167fd2f45f5fa5e80000060076000600460009054906101000a900473ffffffffffffffffffffffffffffffffffffffff1673ffffffffffffffffffffffffffffffffffffffff1673ffffffffffffffffffffffffffffffffffffffff16815260200190815260200160002060003073ffffffffffffffffffffffffffffffffffffffff1673ffffffffffffffffffffffffffffffffffffffff1681526020019081526020016000208190555069017b7883c0691660000060076000600160009054906101000a900473ffffffffffffffffffffffffffffffffffffffff1673ffffffffffffffffffffffffffffffffffffffff1673ffffffffffffffffffffffffffffffffffffffff1681526020019081526020016000206000600460009054906101000a900473ffffffffffffffffffffffffffffffffffffffff1673ffffffffffffffffffffffffffffffffffffffff1673ffffffffffffffffffffffffffffffffffffffff16815260200190815260200160002081905550690a968163f0a57b40000060076000600460009054906101000a900473ffffffffffffffffffffffffffffffffffffffff1673ffffffffffffffffffffffffffffffffffffffff1673ffffffffffffffffffffffffffffffffffffffff1681526020019081526020016000206000600160009054906101000a900473ffffffffffffffffffffffffffffffffffffffff1673ffffffffffffffffffffffffffffffffffffffff1673ffffffffffffffffffffffffffffffffffffffff168152602001908152602001600020819055506901e7e4171bf4d3a0000060076000600260009054906101000a900473ffffffffffffffffffffffffffffffffffffffff1673ffffffffffffffffffffffffffffffffffffffff1673ffffffffffffffffffffffffffffffffffffffff1681526020019081526020016000206000600460009054906101000a900473ffffffffffffffffffffffffffffffffffffffff1673ffffffffffffffffffffffffffffffffffffffff1673ffffffffffffffffffffffffffffffffffffffff1681526020019081526020016000208190555069021e19e0c9bab240000060076000600460009054906101000a900473ffffffffffffffffffffffffffffffffffffffff1673ffffffffffffffffffffffffffffffffffffffff1673ffffffffffffffffffffffffffffffffffffffff1681526020019081526020016000206000600260009054906101000a900473ffffffffffffffffffffffffffffffffffffffff1673ffffffffffffffffffffffffffffffffffffffff1673ffffffffffffffffffffffffffffffffffffffff16815260200190815260200160002081905550690202fefbf2d7c2f0000060076000600360009054906101000a900473ffffffffffffffffffffffffffffffffffffffff1673ffffffffffffffffffffffffffffffffffffffff1673ffffffffffffffffffffffffffffffffffffffff1681526020019081526020016000206000600460009054906101000a900473ffffffffffffffffffffffffffffffffffffffff1673ffffffffffffffffffffffffffffffffffffffff1673ffffffffffffffffffffffffffffffffffffffff1681526020019081526020016000208190555069021e19e0c9bab240000060076000600460009054906101000a900473ffffffffffffffffffffffffffffffffffffffff1673ffffffffffffffffffffffffffffffffffffffff1673ffffffffffffffffffffffffffffffffffffffff1681526020019081526020016000206000600360009054906101000a900473ffffffffffffffffffffffffffffffffffffffff1673ffffffffffffffffffffffffffffffffffffffff1673ffffffffffffffffffffffffffffffffffffffff1681526020019081526020016000208190555068133e9d5b211fac000060076000600560009054906101000a900473ffffffffffffffffffffffffffffffffffffffff1673ffffffffffffffffffffffffffffffffffffffff1673ffffffffffffffffffffffffffffffffffffffff1681526020019081526020016000206000600460009054906101000a900473ffffffffffffffffffffffffffffffffffffffff1673ffffffffffffffffffffffffffffffffffffffff1673ffffffffffffffffffffffffffffffffffffffff168152602001908152602001600020819055506a084595161401484a00000060076000600460009054906101000a900473ffffffffffffffffffffffffffffffffffffffff1673ffffffffffffffffffffffffffffffffffffffff1673ffffffffffffffffffffffffffffffffffffffff1681526020019081526020016000206000600560009054906101000a900473ffffffffffffffffffffffffffffffffffffffff1673ffffffffffffffffffffffffffffffffffffffff1673ffffffffffffffffffffffffffffffffffffffff168152602001908152602001600020819055505050505050620013f2565b600081519050919050565b7f4e487b7100000000000000000000000000000000000000000000000000000000600052604160045260246000fd5b7f4e487b7100000000000000000000000000000000000000000000000000000000600052602260045260246000fd5b600060028204905060018216806200102157607f821691505b60208210810362001037576200103662000fd9565b5b50919050565b60008190508160005260206000209050919050565b60006020601f8301049050919050565b600082821b905092915050565b600060088302620010a17fffffffffffffffffffffffffffffffffffffffffffffffffffffffffffffffff8262001062565b620010ad868362001062565b95508019841693508086168417925050509392505050565b6000819050919050565b6000819050919050565b6000620010fa620010f4620010ee84620010c5565b620010cf565b620010c5565b9050919050565b6000819050919050565b6200111683620010d9565b6200112e620011258262001101565b8484546200106f565b825550505050565b600090565b6200114562001136565b620011528184846200110b565b505050565b5b818110156200117a576200116e6000826200113b565b60018101905062001158565b5050565b601f821115620011c95762001193816200103d565b6200119e8462001052565b81016020851015620011ae578190505b620011c6620011bd8562001052565b83018262001157565b50505b505050565b600082821c905092915050565b6000620011ee60001984600802620011ce565b1980831691505092915050565b6000620012098383620011db565b9150826002028217905092915050565b620012248262000f9f565b67ffffffffffffffff81111562001240576200123f62000faa565b5b6200124c825462001008565b620012598282856200117e565b600060209050601f8311600181146200129157600084156200127c578287015190505b620012888582620011fb565b865550620012f8565b601f198416620012a1866200103d565b60005b82811015620012cb57848901518255600182019150602085019450602081019050620012a4565b86831015620012eb5784890151620012e7601f891682620011db565b8355505b6001600288020188555050505b505050505050565b600080fd5b600073ffffffffffffffffffffffffffffffffffffffff82169050919050565b6000620013328262001305565b9050919050565b620013448162001325565b81146200135057600080fd5b50565b600081519050620013648162001339565b92915050565b600080600080600060a0868803121562001389576200138862001300565b5b6000620013998882890162001353565b9550506020620013ac8882890162001353565b9450506040620013bf8882890162001353565b9350506060620013d28882890162001353565b9250506080620013e58882890162001353565b9150509295509295909350565b61184180620014026000396000f3fe6080604052600436106100c25760003560e01c80634aa066521161007f578063b6b0b09711610059578063b6b0b0971461026c578063df791e5014610297578063e4860339146102b3578063ea4afc54146102f0576100c2565b80634aa06652146101c757806368c4ac26146102045780638da5cb5b14610241576100c2565b806306fdde03146100c75780630a087903146100f257806318820afa1461011d5780631c4695f4146101465780633cdc5389146101715780633e413bee1461019c575b600080fd5b3480156100d357600080fd5b506100dc61032d565b6040516100e99190611166565b60405180910390f35b3480156100fe57600080fd5b506101076103bb565b6040516101149190611207565b60405180910390f35b34801561012957600080fd5b50610144600480360381019061013f919061129b565b6103e1565b005b34801561015257600080fd5b5061015b6105ca565b6040516101689190611207565b60405180910390f35b34801561017d57600080fd5b506101866105f0565b6040516101939190611207565b60405180910390f35b3480156101a857600080fd5b506101b1610616565b6040516101be9190611207565b60405180910390f35b3480156101d357600080fd5b506101ee60048036038101906101e99190611302565b61063c565b6040516101fb9190611364565b60405180910390f35b34801561021057600080fd5b5061022b6004803603810190610226919061137f565b610995565b60405161023891906113c7565b60405180910390f35b34801561024d57600080fd5b506102566109b5565b60405161026391906113f1565b60405180910390f35b34801561027857600080fd5b506102816109db565b60405161028e9190611207565b60405180910390f35b6102b160048036038101906102ac9190611302565b610a01565b005b3480156102bf57600080fd5b506102da60048036038101906102d5919061137f565b61107e565b6040516102e79190611207565b60405180910390f35b3480156102fc57600080fd5b506103176004803603810190610312919061140c565b6110b1565b6040516103249190611364565b60405180910390f35b6000805461033a9061147b565b80601f01602080910402602001604051908101604052809291908181526020018280546103669061147b565b80156103b35780601f10610388576101008083540402835291602001916103b3565b820191906000526020600020905b81548152906001019060200180831161039657829003601f168201915b505050505081565b600360009054906101000a900473ffffffffffffffffffffffffffffffffffffffff1681565b600960008573ffffffffffffffffffffffffffffffffffffffff1673ffffffffffffffffffffffffffffffffffffffff16815260200190815260200160002060009054906101000a900460ff1680156104835750600960008473ffffffffffffffffffffffffffffffffffffffff1673ffffffffffffffffffffffffffffffffffffffff16815260200190815260200160002060009054906101000a900460ff165b6104c2576040517f08c379a00000000000000000000000000000000000000000000000000000000081526004016104b9906114f8565b60405180910390fd5b81600760008673ffffffffffffffffffffffffffffffffffffffff1673ffffffffffffffffffffffffffffffffffffffff16815260200190815260200160002060008573ffffffffffffffffffffffffffffffffffffffff1673ffffffffffffffffffffffffffffffffffffffff1681526020019081526020016000208190555080600760008573ffffffffffffffffffffffffffffffffffffffff1673ffffffffffffffffffffffffffffffffffffffff16815260200190815260200160002060008673ffffffffffffffffffffffffffffffffffffffff1673ffffffffffffffffffffffffffffffffffffffff1681526020019081526020016000208190555050505050565b600160009054906101000a900473ffffffffffffffffffffffffffffffffffffffff1681565b600560009054906101000a900473ffffffffffffffffffffffffffffffffffffffff1681565b600460009054906101000a900473ffffffffffffffffffffffffffffffffffffffff1681565b6000600960008573ffffffffffffffffffffffffffffffffffffffff1673ffffffffffffffffffffffffffffffffffffffff16815260200190815260200160002060009054906101000a900460ff1680156106e05750600960008473ffffffffffffffffffffffffffffffffffffffff1673ffffffffffffffffffffffffffffffffffffffff16815260200190815260200160002060009054906101000a900460ff165b61071f576040517f08c379a0000000000000000000000000000000000000000000000000000000008152600401610716906114f8565b60405180910390fd5b6000600760008673ffffffffffffffffffffffffffffffffffffffff1673ffffffffffffffffffffffffffffffffffffffff16815260200190815260200160002060008573ffffffffffffffffffffffffffffffffffffffff1673ffffffffffffffffffffffffffffffffffffffff1681526020019081526020016000205411801561082757506000600760008573ffffffffffffffffffffffffffffffffffffffff1673ffffffffffffffffffffffffffffffffffffffff16815260200190815260200160002060008673ffffffffffffffffffffffffffffffffffffffff1673ffffffffffffffffffffffffffffffffffffffff16815260200190815260200160002054115b610866576040517f08c379a000000000000000000000000000000000000000000000000000000000815260040161085d90611564565b60405180910390fd5b600082600760008673ffffffffffffffffffffffffffffffffffffffff1673ffffffffffffffffffffffffffffffffffffffff16815260200190815260200160002060008773ffffffffffffffffffffffffffffffffffffffff1673ffffffffffffffffffffffffffffffffffffffff168152602001908152602001600020546108f091906115b3565b9050600083600760008873ffffffffffffffffffffffffffffffffffffffff1673ffffffffffffffffffffffffffffffffffffffff16815260200190815260200160002060008773ffffffffffffffffffffffffffffffffffffffff1673ffffffffffffffffffffffffffffffffffffffff1681526020019081526020016000205461097c91906115f5565b9050808261098a9190611658565b925050509392505050565b60096020528060005260406000206000915054906101000a900460ff1681565b600660009054906101000a900473ffffffffffffffffffffffffffffffffffffffff1681565b600260009054906101000a900473ffffffffffffffffffffffffffffffffffffffff1681565b600960008473ffffffffffffffffffffffffffffffffffffffff1673ffffffffffffffffffffffffffffffffffffffff16815260200190815260200160002060009054906101000a900460ff168015610aa35750600960008373ffffffffffffffffffffffffffffffffffffffff1673ffffffffffffffffffffffffffffffffffffffff16815260200190815260200160002060009054906101000a900460ff165b610ae2576040517f08c379a0000000000000000000000000000000000000000000000000000000008152600401610ad9906114f8565b60405180910390fd5b60008190506000610af485858461063c565b905060008111610b39576040517f08c379a0000000000000000000000000000000000000000000000000000000008152600401610b3090611564565b60405180910390fd5b3073ffffffffffffffffffffffffffffffffffffffff168473ffffffffffffffffffffffffffffffffffffffff1603610c77578473ffffffffffffffffffffffffffffffffffffffff166323b872dd3330856040518463ffffffff1660e01b8152600401610ba993929190611689565b6020604051808303816000875af1158015610bc8573d6000803e3d6000fd5b505050506040513d601f19601f82011682018060405250810190610bec91906116ec565b610c2b576040517f08c379a0000000000000000000000000000000000000000000000000000000008152600401610c2290611765565b60405180910390fd5b3373ffffffffffffffffffffffffffffffffffffffff166108fc829081150290604051600060405180830381858888f19350505050158015610c71573d6000803e3d6000fd5b50610eea565b3073ffffffffffffffffffffffffffffffffffffffff168573ffffffffffffffffffffffffffffffffffffffff1603610d6c578373ffffffffffffffffffffffffffffffffffffffff1663a9059cbb33836040518363ffffffff1660e01b8152600401610ce5929190611785565b6020604051808303816000875af1158015610d04573d6000803e3d6000fd5b505050506040513d601f19601f82011682018060405250810190610d2891906116ec565b610d67576040517f08c379a0000000000000000000000000000000000000000000000000000000008152600401610d5e90611765565b60405180910390fd5b610ee9565b8473ffffffffffffffffffffffffffffffffffffffff166323b872dd3330856040518463ffffffff1660e01b8152600401610da993929190611689565b6020604051808303816000875af1158015610dc8573d6000803e3d6000fd5b505050506040513d601f19601f82011682018060405250810190610dec91906116ec565b610e2b576040517f08c379a0000000000000000000000000000000000000000000000000000000008152600401610e2290611765565b60405180910390fd5b8373ffffffffffffffffffffffffffffffffffffffff1663095ea7b333836040518363ffffffff1660e01b8152600401610e66929190611785565b6020604051808303816000875af1158015610e85573d6000803e3d6000fd5b505050506040513d601f19601f82011682018060405250810190610ea991906116ec565b610ee8576040517f08c379a0000000000000000000000000000000000000000000000000000000008152600401610edf90611765565b60405180910390fd5b5b5b81600760008773ffffffffffffffffffffffffffffffffffffffff1673ffffffffffffffffffffffffffffffffffffffff16815260200190815260200160002060008673ffffffffffffffffffffffffffffffffffffffff1673ffffffffffffffffffffffffffffffffffffffff1681526020019081526020016000206000828254610f7691906115f5565b9250508190555080600760008673ffffffffffffffffffffffffffffffffffffffff1673ffffffffffffffffffffffffffffffffffffffff16815260200190815260200160002060008773ffffffffffffffffffffffffffffffffffffffff1673ffffffffffffffffffffffffffffffffffffffff168152602001908152602001600020600082825461100991906117ae565b925050819055508373ffffffffffffffffffffffffffffffffffffffff168573ffffffffffffffffffffffffffffffffffffffff167f1f2c1de040604eaf4a8c72b05bd7c16fae213f15cbde69ecf70dd3b97fef1f2f848460405161106f9291906117e2565b60405180910390a35050505050565b60086020528060005260406000206000915054906101000a900473ffffffffffffffffffffffffffffffffffffffff1681565b6007602052816000526040600020602052806000526040600020600091509150505481565b600081519050919050565b600082825260208201905092915050565b60005b838110156111105780820151818401526020810190506110f5565b60008484015250505050565b6000601f19601f8301169050919050565b6000611138826110d6565b61114281856110e1565b93506111528185602086016110f2565b61115b8161111c565b840191505092915050565b60006020820190508181036000830152611180818461112d565b905092915050565b600073ffffffffffffffffffffffffffffffffffffffff82169050919050565b6000819050919050565b60006111cd6111c86111c384611188565b6111a8565b611188565b9050919050565b60006111df826111b2565b9050919050565b60006111f1826111d4565b9050919050565b611201816111e6565b82525050565b600060208201905061121c60008301846111f8565b92915050565b600080fd5b600061123282611188565b9050919050565b61124281611227565b811461124d57600080fd5b50565b60008135905061125f81611239565b92915050565b6000819050919050565b61127881611265565b811461128357600080fd5b50565b6000813590506112958161126f565b92915050565b600080600080608085870312156112b5576112b4611222565b5b60006112c387828801611250565b94505060206112d487828801611250565b93505060406112e587828801611286565b92505060606112f687828801611286565b91505092959194509250565b60008060006060848603121561131b5761131a611222565b5b600061132986828701611250565b935050602061133a86828701611250565b925050604061134b86828701611286565b9150509250925092565b61135e81611265565b82525050565b60006020820190506113796000830184611355565b92915050565b60006020828403121561139557611394611222565b5b60006113a384828501611250565b91505092915050565b60008115159050919050565b6113c1816113ac565b82525050565b60006020820190506113dc60008301846113b8565b92915050565b6113eb81611227565b82525050565b600060208201905061140660008301846113e2565b92915050565b6000806040838503121561142357611422611222565b5b600061143185828601611250565b925050602061144285828601611250565b9150509250929050565b7f4e487b7100000000000000000000000000000000000000000000000000000000600052602260045260246000fd5b6000600282049050600182168061149357607f821691505b6020821081036114a6576114a561144c565b5b50919050565b7f496e76616c696420746f6b656e20706169720000000000000000000000000000600082015250565b60006114e26012836110e1565b91506114ed826114ac565b602082019050919050565b60006020820190508181036000830152611511816114d5565b9050919050565b7f4e6f7420656e6f756768206c697175696469747920696e2074686520706f6f6c600082015250565b600061154e6020836110e1565b915061155982611518565b602082019050919050565b6000602082019050818103600083015261157d81611541565b9050919050565b7f4e487b7100000000000000000000000000000000000000000000000000000000600052601160045260246000fd5b60006115be82611265565b91506115c983611265565b92508282026115d781611265565b915082820484148315176115ee576115ed611584565b5b5092915050565b600061160082611265565b915061160b83611265565b925082820190508082111561162357611622611584565b5b92915050565b7f4e487b7100000000000000000000000000000000000000000000000000000000600052601260045260246000fd5b600061166382611265565b915061166e83611265565b92508261167e5761167d611629565b5b828204905092915050565b600060608201905061169e60008301866113e2565b6116ab60208301856113e2565b6116b86040830184611355565b949350505050565b6116c9816113ac565b81146116d457600080fd5b50565b6000815190506116e6816116c0565b92915050565b60006020828403121561170257611701611222565b5b6000611710848285016116d7565b91505092915050565b7f546f6b656e207472616e73666572206661696c65640000000000000000000000600082015250565b600061174f6015836110e1565b915061175a82611719565b602082019050919050565b6000602082019050818103600083015261177e81611742565b9050919050565b600060408201905061179a60008301856113e2565b6117a76020830184611355565b9392505050565b60006117b982611265565b91506117c483611265565b92508282039050818111156117dc576117db611584565b5b92915050565b60006040820190506117f76000830185611355565b6118046020830184611355565b939250505056fea2646970667358221220ddaf249aa00cbc7d5a36ce1bfd1a3b7d0d078c0b48f65ec440732b75842d132164736f6c634300081100334e6f7420536f204c697175696420446563656e7472616c697a65642045786368616e6765",
  "immutableReferences": {},
  "source": "// SPDX-License-Identifier: UNLICENSED\npragma solidity >=0.8.17;\n\nimport \"./ERC20/Link.sol\";\nimport \"./ERC20/Matic.sol\";\nimport \"./ERC20/Sushi.sol\";\nimport \"./ERC20/Usdc.sol\";\nimport \"./ERC20/Wbtc.sol\";\n\nimport \"../node_modules/@openzeppelin/contracts/token/ERC20/IERC20.sol\";\n\ncontract NotSoLiquidDecentralizedExchange {\n    string public name = \"Not So Liquid Decentralized Exchange\";\n    IERC20 public link;\n    IERC20 public matic;\n    IERC20 public sushi;\n    IERC20 public usdc;\n    IERC20 public wbtc;\n\n    address public owner;\n    mapping(address => mapping(address => uint256)) public reserves;\n    mapping(address => IERC20) public tokens;\n    // mapping for supported tokens\n    mapping(address => bool) public supportedTokens;\n\n    event TokenSwap(\n        address indexed tokenSold,\n        address indexed tokenBought,\n        uint256 amountSold,\n        uint256 amountBought\n    );\n\n    constructor(\n        address _link,\n        address _matic,\n        address _sushi,\n        address _usdc,\n        address _wbtc\n    ) {\n        owner = msg.sender;\n        supportedTokens[address(this)] = true;\n        supportedTokens[address(_link)] = true;\n        supportedTokens[address(_matic)] = true;\n        supportedTokens[address(_sushi)] = true;\n        supportedTokens[address(_usdc)] = true;\n        supportedTokens[address(_wbtc)] = true;\n\n        link = IERC20(_link);\n        matic = IERC20(_matic);\n        sushi = IERC20(_sushi);\n        usdc = IERC20(_usdc);\n        wbtc = IERC20(_wbtc);\n\n        tokens[address(matic)] = matic;\n        tokens[address(link)] = link;\n        tokens[address(sushi)] = sushi;\n        tokens[address(usdc)] = usdc;\n        tokens[address(wbtc)] = wbtc;\n\n        reserves[address(this)][address(usdc)] = 970 ether;\n        reserves[address(usdc)][address(this)] = 1700000000000000000000000;\n        // x * y = k\n        // x (eth) = 970\n        // y (usdc) = 1 700 000\n        // k (constant product) = 1 649 000 000\n        // price per ETH = 1752,58\n\n        reserves[address(link)][address(usdc)] = 7000000000000000000000;\n        reserves[address(usdc)][address(link)] = 50000000000000000000000;\n        // x (link) = 7 000\n        // y (usdc) = 50 000\n        // k (constant product) = 35 000 000 000\n        // price per ETH = 7,14\n\n        reserves[address(matic)][address(usdc)] = 9000000000000000000000;\n        reserves[address(usdc)][address(matic)] = 10000000000000000000000;\n        // x (matic) = 9 000\n        // y (usdc) = 10 000\n        // k (constant product) = 9 000 000 000\n        // price per ETH = 1,11\n\n        reserves[address(sushi)][address(usdc)] = 9500000000000000000000;\n        reserves[address(usdc)][address(sushi)] = 10000000000000000000000;\n        // x (sushi) = 9 500\n        // y (usdc) = 10 000\n        // k (constant product) = 9 500 000 000\n        // price per ETH = 1,15\n\n        reserves[address(wbtc)][address(usdc)] = 355000000000000000000;\n        reserves[address(usdc)][address(wbtc)] = 10000000000000000000000000;\n        // x (wbtc) = 35.5\n        // y (usdc) = 1 000 000\n        // k (constant product) = 3 550 000 000\n        // price per ETH = 28 170\n    }\n\n    function getAmountOut(\n        address tokenSold,\n        address tokenBought,\n        uint256 amountSold\n    ) public view returns (uint256) {\n        require(\n            supportedTokens[tokenSold] && supportedTokens[tokenBought],\n            \"Invalid token pair\"\n        );\n        require(\n            reserves[tokenSold][tokenBought] > 0 &&\n                reserves[tokenBought][tokenSold] > 0,\n            \"Not enough liquidity in the pool\"\n        );\n        // [ETH][DAI] = 9 700\n        // [DAI][ETH] = 17 000 000\n        uint256 numerator = reserves[tokenBought][tokenSold] * amountSold;\n        uint256 denominator = reserves[tokenSold][tokenBought] + amountSold;\n        return numerator / denominator;\n    }\n\n    function executeArbitrage(\n        address tokenSold,\n        address tokenBought,\n        uint256 amount0,\n        uint256 amount1\n    ) public {\n        require(\n            supportedTokens[tokenSold] && supportedTokens[tokenBought],\n            \"Invalid token pair\"\n        );\n\n        reserves[tokenSold][tokenBought] = amount0;\n        reserves[tokenBought][tokenSold] = amount1;\n    }\n\n    function swap(\n        address tokenSold,\n        address tokenBought,\n        uint256 _amountSold\n    ) public payable {\n        require(\n            supportedTokens[tokenSold] && supportedTokens[tokenBought],\n            \"Invalid token pair\"\n        );\n        uint256 amountSold = _amountSold;\n        uint256 amountBought = getAmountOut(tokenSold, tokenBought, amountSold);\n        require(amountBought > 0, \"Not enough liquidity in the pool\");\n\n        if (tokenBought == address(this)) {\n            require(\n                IERC20(tokenSold).transferFrom(\n                    msg.sender,\n                    address(this),\n                    amountSold\n                ),\n                \"Token transfer failed\"\n            );\n            payable(msg.sender).transfer(amountBought);\n        } else if (tokenSold == address(this)) {\n            require(\n                IERC20(tokenBought).transfer(msg.sender, amountBought),\n                \"Token transfer failed\"\n            );\n        } else {\n            require(\n                IERC20(tokenSold).transferFrom(\n                    msg.sender,\n                    address(this),\n                    amountSold\n                ),\n                \"Token transfer failed\"\n            );\n            require(\n                IERC20(tokenBought).approve(msg.sender, amountBought),\n                \"Token transfer failed\"\n            );\n        }\n        reserves[tokenSold][tokenBought] += amountSold;\n        reserves[tokenBought][tokenSold] -= amountBought;\n        emit TokenSwap(tokenSold, tokenBought, amountSold, amountBought);\n    }\n}\n",
  "sourcePath": "/home/suprabit/Documents/Diplomski Rad/code/diplomski-rad/contracts/NotSoLiquidDex.sol",
  "compiler": {
    "name": "solc",
    "version": "0.8.17+commit.8df45f5f.Emscripten.clang"
  },
  "schemaVersion": "3.4.10",
  "updatedAt": "2023-07-04T10:05:38.069Z",
  "networkType": "ethereum",
  "devdoc": {
    "kind": "dev",
    "methods": {},
    "version": 1
  },
  "userdoc": {
    "kind": "user",
    "methods": {},
    "version": 1
  }
}