{
  "contractName": "NotSoLiquidDecentralizedExchange",
  "abi": [
    {
      "inputs": [
        {
          "internalType": "address",
          "name": "_link",
          "type": "address"
        },
        {
          "internalType": "address",
          "name": "_matic",
          "type": "address"
        },
        {
          "internalType": "address",
          "name": "_sushi",
          "type": "address"
        },
        {
          "internalType": "address",
          "name": "_usdc",
          "type": "address"
        },
        {
          "internalType": "address",
          "name": "_wbtc",
          "type": "address"
        }
      ],
      "stateMutability": "nonpayable",
      "type": "constructor"
    },
    {
      "anonymous": false,
      "inputs": [
        {
          "indexed": true,
          "internalType": "address",
          "name": "tokenSold",
          "type": "address"
        },
        {
          "indexed": true,
          "internalType": "address",
          "name": "tokenBought",
          "type": "address"
        },
        {
          "indexed": false,
          "internalType": "uint256",
          "name": "amountSold",
          "type": "uint256"
        },
        {
          "indexed": false,
          "internalType": "uint256",
          "name": "amountBought",
          "type": "uint256"
        }
      ],
      "name": "TokenSwap",
      "type": "event"
    },
    {
      "inputs": [],
      "name": "link",
      "outputs": [
        {
          "internalType": "contract IERC20",
          "name": "",
          "type": "address"
        }
      ],
      "stateMutability": "view",
      "type": "function",
      "constant": true
    },
    {
      "inputs": [],
      "name": "matic",
      "outputs": [
        {
          "internalType": "contract IERC20",
          "name": "",
          "type": "address"
        }
      ],
      "stateMutability": "view",
      "type": "function",
      "constant": true
    },
    {
      "inputs": [],
      "name": "name",
      "outputs": [
        {
          "internalType": "string",
          "name": "",
          "type": "string"
        }
      ],
      "stateMutability": "view",
      "type": "function",
      "constant": true
    },
    {
      "inputs": [],
      "name": "owner",
      "outputs": [
        {
          "internalType": "address",
          "name": "",
          "type": "address"
        }
      ],
      "stateMutability": "view",
      "type": "function",
      "constant": true
    },
    {
      "inputs": [
        {
          "internalType": "address",
          "name": "",
          "type": "address"
        },
        {
          "internalType": "address",
          "name": "",
          "type": "address"
        }
      ],
      "name": "reserves",
      "outputs": [
        {
          "internalType": "uint256",
          "name": "",
          "type": "uint256"
        }
      ],
      "stateMutability": "view",
      "type": "function",
      "constant": true
    },
    {
      "inputs": [
        {
          "internalType": "address",
          "name": "",
          "type": "address"
        }
      ],
      "name": "supportedTokens",
      "outputs": [
        {
          "internalType": "bool",
          "name": "",
          "type": "bool"
        }
      ],
      "stateMutability": "view",
      "type": "function",
      "constant": true
    },
    {
      "inputs": [],
      "name": "sushi",
      "outputs": [
        {
          "internalType": "contract IERC20",
          "name": "",
          "type": "address"
        }
      ],
      "stateMutability": "view",
      "type": "function",
      "constant": true
    },
    {
      "inputs": [
        {
          "internalType": "address",
          "name": "",
          "type": "address"
        }
      ],
      "name": "tokens",
      "outputs": [
        {
          "internalType": "contract IERC20",
          "name": "",
          "type": "address"
        }
      ],
      "stateMutability": "view",
      "type": "function",
      "constant": true
    },
    {
      "inputs": [],
      "name": "usdc",
      "outputs": [
        {
          "internalType": "contract IERC20",
          "name": "",
          "type": "address"
        }
      ],
      "stateMutability": "view",
      "type": "function",
      "constant": true
    },
    {
      "inputs": [],
      "name": "wbtc",
      "outputs": [
        {
          "internalType": "contract IERC20",
          "name": "",
          "type": "address"
        }
      ],
      "stateMutability": "view",
      "type": "function",
      "constant": true
    },
    {
      "inputs": [
        {
          "internalType": "address",
          "name": "tokenSold",
          "type": "address"
        },
        {
          "internalType": "address",
          "name": "tokenBought",
          "type": "address"
        },
        {
          "internalType": "uint256",
          "name": "amountSold",
          "type": "uint256"
        }
      ],
      "name": "getAmountOut",
      "outputs": [
        {
          "internalType": "uint256",
          "name": "",
          "type": "uint256"
        }
      ],
      "stateMutability": "view",
      "type": "function",
      "constant": true
    },
    {
      "inputs": [
        {
          "internalType": "address",
          "name": "tokenSold",
          "type": "address"
        },
        {
          "internalType": "address",
          "name": "tokenBought",
          "type": "address"
        },
        {
          "internalType": "uint256",
          "name": "_amountSold",
          "type": "uint256"
        }
      ],
      "name": "swap",
      "outputs": [],
      "stateMutability": "payable",
      "type": "function",
      "payable": true
    }
  ],
  "bytecode": "0x6080604052604051806060016040528060248152602001620029af60249139600090816200002e919062001219565b503480156200003c57600080fd5b50604051620029d3380380620029d383398181016040528101906200006291906200136a565b33600660006101000a81548173ffffffffffffffffffffffffffffffffffffffff021916908373ffffffffffffffffffffffffffffffffffffffff1602179055506001600960003073ffffffffffffffffffffffffffffffffffffffff1673ffffffffffffffffffffffffffffffffffffffff16815260200190815260200160002060006101000a81548160ff0219169083151502179055506001600960008773ffffffffffffffffffffffffffffffffffffffff1673ffffffffffffffffffffffffffffffffffffffff16815260200190815260200160002060006101000a81548160ff0219169083151502179055506001600960008673ffffffffffffffffffffffffffffffffffffffff1673ffffffffffffffffffffffffffffffffffffffff16815260200190815260200160002060006101000a81548160ff0219169083151502179055506001600960008573ffffffffffffffffffffffffffffffffffffffff1673ffffffffffffffffffffffffffffffffffffffff16815260200190815260200160002060006101000a81548160ff0219169083151502179055506001600960008473ffffffffffffffffffffffffffffffffffffffff1673ffffffffffffffffffffffffffffffffffffffff16815260200190815260200160002060006101000a81548160ff0219169083151502179055506001600960008373ffffffffffffffffffffffffffffffffffffffff1673ffffffffffffffffffffffffffffffffffffffff16815260200190815260200160002060006101000a81548160ff02191690831515021790555084600160006101000a81548173ffffffffffffffffffffffffffffffffffffffff021916908373ffffffffffffffffffffffffffffffffffffffff16021790555083600260006101000a81548173ffffffffffffffffffffffffffffffffffffffff021916908373ffffffffffffffffffffffffffffffffffffffff16021790555082600360006101000a81548173ffffffffffffffffffffffffffffffffffffffff021916908373ffffffffffffffffffffffffffffffffffffffff16021790555081600460006101000a81548173ffffffffffffffffffffffffffffffffffffffff021916908373ffffffffffffffffffffffffffffffffffffffff16021790555080600560006101000a81548173ffffffffffffffffffffffffffffffffffffffff021916908373ffffffffffffffffffffffffffffffffffffffff160217905550600260009054906101000a900473ffffffffffffffffffffffffffffffffffffffff1660086000600260009054906101000a900473ffffffffffffffffffffffffffffffffffffffff1673ffffffffffffffffffffffffffffffffffffffff1673ffffffffffffffffffffffffffffffffffffffff16815260200190815260200160002060006101000a81548173ffffffffffffffffffffffffffffffffffffffff021916908373ffffffffffffffffffffffffffffffffffffffff160217905550600160009054906101000a900473ffffffffffffffffffffffffffffffffffffffff1660086000600160009054906101000a900473ffffffffffffffffffffffffffffffffffffffff1673ffffffffffffffffffffffffffffffffffffffff1673ffffffffffffffffffffffffffffffffffffffff16815260200190815260200160002060006101000a81548173ffffffffffffffffffffffffffffffffffffffff021916908373ffffffffffffffffffffffffffffffffffffffff160217905550600360009054906101000a900473ffffffffffffffffffffffffffffffffffffffff1660086000600360009054906101000a900473ffffffffffffffffffffffffffffffffffffffff1673ffffffffffffffffffffffffffffffffffffffff1673ffffffffffffffffffffffffffffffffffffffff16815260200190815260200160002060006101000a81548173ffffffffffffffffffffffffffffffffffffffff021916908373ffffffffffffffffffffffffffffffffffffffff160217905550600460009054906101000a900473ffffffffffffffffffffffffffffffffffffffff1660086000600460009054906101000a900473ffffffffffffffffffffffffffffffffffffffff1673ffffffffffffffffffffffffffffffffffffffff1673ffffffffffffffffffffffffffffffffffffffff16815260200190815260200160002060006101000a81548173ffffffffffffffffffffffffffffffffffffffff021916908373ffffffffffffffffffffffffffffffffffffffff160217905550600560009054906101000a900473ffffffffffffffffffffffffffffffffffffffff1660086000600560009054906101000a900473ffffffffffffffffffffffffffffffffffffffff1673ffffffffffffffffffffffffffffffffffffffff1673ffffffffffffffffffffffffffffffffffffffff16815260200190815260200160002060006101000a81548173ffffffffffffffffffffffffffffffffffffffff021916908373ffffffffffffffffffffffffffffffffffffffff1602179055506834957444b840e80000600760003073ffffffffffffffffffffffffffffffffffffffff1673ffffffffffffffffffffffffffffffffffffffff1681526020019081526020016000206000600460009054906101000a900473ffffffffffffffffffffffffffffffffffffffff1673ffffffffffffffffffffffffffffffffffffffff1673ffffffffffffffffffffffffffffffffffffffff168152602001908152602001600020819055506a0167fd2f45f5fa5e80000060076000600460009054906101000a900473ffffffffffffffffffffffffffffffffffffffff1673ffffffffffffffffffffffffffffffffffffffff1673ffffffffffffffffffffffffffffffffffffffff16815260200190815260200160002060003073ffffffffffffffffffffffffffffffffffffffff1673ffffffffffffffffffffffffffffffffffffffff16815260200190815260200160002081905550690ed2b525841adfc0000060076000600160009054906101000a900473ffffffffffffffffffffffffffffffffffffffff1673ffffffffffffffffffffffffffffffffffffffff1673ffffffffffffffffffffffffffffffffffffffff1681526020019081526020016000206000600460009054906101000a900473ffffffffffffffffffffffffffffffffffffffff1673ffffffffffffffffffffffffffffffffffffffff1673ffffffffffffffffffffffffffffffffffffffff168152602001908152602001600020819055506969e10de76676d080000060076000600460009054906101000a900473ffffffffffffffffffffffffffffffffffffffff1673ffffffffffffffffffffffffffffffffffffffff1673ffffffffffffffffffffffffffffffffffffffff1681526020019081526020016000206000600160009054906101000a900473ffffffffffffffffffffffffffffffffffffffff1673ffffffffffffffffffffffffffffffffffffffff1673ffffffffffffffffffffffffffffffffffffffff1681526020019081526020016000208190555069130ee8e717904440000060076000600260009054906101000a900473ffffffffffffffffffffffffffffffffffffffff1673ffffffffffffffffffffffffffffffffffffffff1673ffffffffffffffffffffffffffffffffffffffff1681526020019081526020016000206000600460009054906101000a900473ffffffffffffffffffffffffffffffffffffffff1673ffffffffffffffffffffffffffffffffffffffff1673ffffffffffffffffffffffffffffffffffffffff1681526020019081526020016000208190555069152d02c7e14af680000060076000600460009054906101000a900473ffffffffffffffffffffffffffffffffffffffff1673ffffffffffffffffffffffffffffffffffffffff1673ffffffffffffffffffffffffffffffffffffffff1681526020019081526020016000206000600260009054906101000a900473ffffffffffffffffffffffffffffffffffffffff1673ffffffffffffffffffffffffffffffffffffffff1673ffffffffffffffffffffffffffffffffffffffff1681526020019081526020016000208190555069141df5d77c6d9d60000060076000600360009054906101000a900473ffffffffffffffffffffffffffffffffffffffff1673ffffffffffffffffffffffffffffffffffffffff1673ffffffffffffffffffffffffffffffffffffffff1681526020019081526020016000206000600460009054906101000a900473ffffffffffffffffffffffffffffffffffffffff1673ffffffffffffffffffffffffffffffffffffffff1673ffffffffffffffffffffffffffffffffffffffff1681526020019081526020016000208190555069152d02c7e14af680000060076000600460009054906101000a900473ffffffffffffffffffffffffffffffffffffffff1673ffffffffffffffffffffffffffffffffffffffff1673ffffffffffffffffffffffffffffffffffffffff1681526020019081526020016000206000600360009054906101000a900473ffffffffffffffffffffffffffffffffffffffff1673ffffffffffffffffffffffffffffffffffffffff1673ffffffffffffffffffffffffffffffffffffffff1681526020019081526020016000208190555068c072258f4b3cb8000060076000600560009054906101000a900473ffffffffffffffffffffffffffffffffffffffff1673ffffffffffffffffffffffffffffffffffffffff1673ffffffffffffffffffffffffffffffffffffffff1681526020019081526020016000206000600460009054906101000a900473ffffffffffffffffffffffffffffffffffffffff1673ffffffffffffffffffffffffffffffffffffffff1673ffffffffffffffffffffffffffffffffffffffff168152602001908152602001600020819055506a52b7d2dcc80cd2e400000060076000600460009054906101000a900473ffffffffffffffffffffffffffffffffffffffff1673ffffffffffffffffffffffffffffffffffffffff1673ffffffffffffffffffffffffffffffffffffffff1681526020019081526020016000206000600560009054906101000a900473ffffffffffffffffffffffffffffffffffffffff1673ffffffffffffffffffffffffffffffffffffffff1673ffffffffffffffffffffffffffffffffffffffff168152602001908152602001600020819055505050505050620013f2565b600081519050919050565b7f4e487b7100000000000000000000000000000000000000000000000000000000600052604160045260246000fd5b7f4e487b7100000000000000000000000000000000000000000000000000000000600052602260045260246000fd5b600060028204905060018216806200102157607f821691505b60208210810362001037576200103662000fd9565b5b50919050565b60008190508160005260206000209050919050565b60006020601f8301049050919050565b600082821b905092915050565b600060088302620010a17fffffffffffffffffffffffffffffffffffffffffffffffffffffffffffffffff8262001062565b620010ad868362001062565b95508019841693508086168417925050509392505050565b6000819050919050565b6000819050919050565b6000620010fa620010f4620010ee84620010c5565b620010cf565b620010c5565b9050919050565b6000819050919050565b6200111683620010d9565b6200112e620011258262001101565b8484546200106f565b825550505050565b600090565b6200114562001136565b620011528184846200110b565b505050565b5b818110156200117a576200116e6000826200113b565b60018101905062001158565b5050565b601f821115620011c95762001193816200103d565b6200119e8462001052565b81016020851015620011ae578190505b620011c6620011bd8562001052565b83018262001157565b50505b505050565b600082821c905092915050565b6000620011ee60001984600802620011ce565b1980831691505092915050565b6000620012098383620011db565b9150826002028217905092915050565b620012248262000f9f565b67ffffffffffffffff81111562001240576200123f62000faa565b5b6200124c825462001008565b620012598282856200117e565b600060209050601f8311600181146200129157600084156200127c578287015190505b620012888582620011fb565b865550620012f8565b601f198416620012a1866200103d565b60005b82811015620012cb57848901518255600182019150602085019450602081019050620012a4565b86831015620012eb5784890151620012e7601f891682620011db565b8355505b6001600288020188555050505b505050505050565b600080fd5b600073ffffffffffffffffffffffffffffffffffffffff82169050919050565b6000620013328262001305565b9050919050565b620013448162001325565b81146200135057600080fd5b50565b600081519050620013648162001339565b92915050565b600080600080600060a0868803121562001389576200138862001300565b5b6000620013998882890162001353565b9550506020620013ac8882890162001353565b9450506040620013bf8882890162001353565b9350506060620013d28882890162001353565b9250506080620013e58882890162001353565b9150509295509295909350565b6115ad80620014026000396000f3fe6080604052600436106100a75760003560e01c806368c4ac261161006457806368c4ac26146101c05780638da5cb5b146101fd578063b6b0b09714610228578063df791e5014610253578063e48603391461026f578063ea4afc54146102ac576100a7565b806306fdde03146100ac5780630a087903146100d75780631c4695f4146101025780633cdc53891461012d5780633e413bee146101585780634aa0665214610183575b600080fd5b3480156100b857600080fd5b506100c16102e9565b6040516100ce9190610f39565b60405180910390f35b3480156100e357600080fd5b506100ec610377565b6040516100f99190610fda565b60405180910390f35b34801561010e57600080fd5b5061011761039d565b6040516101249190610fda565b60405180910390f35b34801561013957600080fd5b506101426103c3565b60405161014f9190610fda565b60405180910390f35b34801561016457600080fd5b5061016d6103e9565b60405161017a9190610fda565b60405180910390f35b34801561018f57600080fd5b506101aa60048036038101906101a5919061106e565b61040f565b6040516101b791906110d0565b60405180910390f35b3480156101cc57600080fd5b506101e760048036038101906101e291906110eb565b610768565b6040516101f49190611133565b60405180910390f35b34801561020957600080fd5b50610212610788565b60405161021f919061115d565b60405180910390f35b34801561023457600080fd5b5061023d6107ae565b60405161024a9190610fda565b60405180910390f35b61026d6004803603810190610268919061106e565b6107d4565b005b34801561027b57600080fd5b50610296600480360381019061029191906110eb565b610e51565b6040516102a39190610fda565b60405180910390f35b3480156102b857600080fd5b506102d360048036038101906102ce9190611178565b610e84565b6040516102e091906110d0565b60405180910390f35b600080546102f6906111e7565b80601f0160208091040260200160405190810160405280929190818152602001828054610322906111e7565b801561036f5780601f106103445761010080835404028352916020019161036f565b820191906000526020600020905b81548152906001019060200180831161035257829003601f168201915b505050505081565b600360009054906101000a900473ffffffffffffffffffffffffffffffffffffffff1681565b600160009054906101000a900473ffffffffffffffffffffffffffffffffffffffff1681565b600560009054906101000a900473ffffffffffffffffffffffffffffffffffffffff1681565b600460009054906101000a900473ffffffffffffffffffffffffffffffffffffffff1681565b6000600960008573ffffffffffffffffffffffffffffffffffffffff1673ffffffffffffffffffffffffffffffffffffffff16815260200190815260200160002060009054906101000a900460ff1680156104b35750600960008473ffffffffffffffffffffffffffffffffffffffff1673ffffffffffffffffffffffffffffffffffffffff16815260200190815260200160002060009054906101000a900460ff165b6104f2576040517f08c379a00000000000000000000000000000000000000000000000000000000081526004016104e990611264565b60405180910390fd5b6000600760008673ffffffffffffffffffffffffffffffffffffffff1673ffffffffffffffffffffffffffffffffffffffff16815260200190815260200160002060008573ffffffffffffffffffffffffffffffffffffffff1673ffffffffffffffffffffffffffffffffffffffff168152602001908152602001600020541180156105fa57506000600760008573ffffffffffffffffffffffffffffffffffffffff1673ffffffffffffffffffffffffffffffffffffffff16815260200190815260200160002060008673ffffffffffffffffffffffffffffffffffffffff1673ffffffffffffffffffffffffffffffffffffffff16815260200190815260200160002054115b610639576040517f08c379a0000000000000000000000000000000000000000000000000000000008152600401610630906112d0565b60405180910390fd5b600082600760008673ffffffffffffffffffffffffffffffffffffffff1673ffffffffffffffffffffffffffffffffffffffff16815260200190815260200160002060008773ffffffffffffffffffffffffffffffffffffffff1673ffffffffffffffffffffffffffffffffffffffff168152602001908152602001600020546106c3919061131f565b9050600083600760008873ffffffffffffffffffffffffffffffffffffffff1673ffffffffffffffffffffffffffffffffffffffff16815260200190815260200160002060008773ffffffffffffffffffffffffffffffffffffffff1673ffffffffffffffffffffffffffffffffffffffff1681526020019081526020016000205461074f9190611361565b9050808261075d91906113c4565b925050509392505050565b60096020528060005260406000206000915054906101000a900460ff1681565b600660009054906101000a900473ffffffffffffffffffffffffffffffffffffffff1681565b600260009054906101000a900473ffffffffffffffffffffffffffffffffffffffff1681565b600960008473ffffffffffffffffffffffffffffffffffffffff1673ffffffffffffffffffffffffffffffffffffffff16815260200190815260200160002060009054906101000a900460ff1680156108765750600960008373ffffffffffffffffffffffffffffffffffffffff1673ffffffffffffffffffffffffffffffffffffffff16815260200190815260200160002060009054906101000a900460ff165b6108b5576040517f08c379a00000000000000000000000000000000000000000000000000000000081526004016108ac90611264565b60405180910390fd5b600081905060006108c785858461040f565b90506000811161090c576040517f08c379a0000000000000000000000000000000000000000000000000000000008152600401610903906112d0565b60405180910390fd5b3073ffffffffffffffffffffffffffffffffffffffff168473ffffffffffffffffffffffffffffffffffffffff1603610a4a578473ffffffffffffffffffffffffffffffffffffffff166323b872dd3330856040518463ffffffff1660e01b815260040161097c939291906113f5565b6020604051808303816000875af115801561099b573d6000803e3d6000fd5b505050506040513d601f19601f820116820180604052508101906109bf9190611458565b6109fe576040517f08c379a00000000000000000000000000000000000000000000000000000000081526004016109f5906114d1565b60405180910390fd5b3373ffffffffffffffffffffffffffffffffffffffff166108fc829081150290604051600060405180830381858888f19350505050158015610a44573d6000803e3d6000fd5b50610cbd565b3073ffffffffffffffffffffffffffffffffffffffff168573ffffffffffffffffffffffffffffffffffffffff1603610b3f578373ffffffffffffffffffffffffffffffffffffffff1663a9059cbb33836040518363ffffffff1660e01b8152600401610ab89291906114f1565b6020604051808303816000875af1158015610ad7573d6000803e3d6000fd5b505050506040513d601f19601f82011682018060405250810190610afb9190611458565b610b3a576040517f08c379a0000000000000000000000000000000000000000000000000000000008152600401610b31906114d1565b60405180910390fd5b610cbc565b8473ffffffffffffffffffffffffffffffffffffffff166323b872dd3330856040518463ffffffff1660e01b8152600401610b7c939291906113f5565b6020604051808303816000875af1158015610b9b573d6000803e3d6000fd5b505050506040513d601f19601f82011682018060405250810190610bbf9190611458565b610bfe576040517f08c379a0000000000000000000000000000000000000000000000000000000008152600401610bf5906114d1565b60405180910390fd5b8373ffffffffffffffffffffffffffffffffffffffff1663095ea7b333836040518363ffffffff1660e01b8152600401610c399291906114f1565b6020604051808303816000875af1158015610c58573d6000803e3d6000fd5b505050506040513d601f19601f82011682018060405250810190610c7c9190611458565b610cbb576040517f08c379a0000000000000000000000000000000000000000000000000000000008152600401610cb2906114d1565b60405180910390fd5b5b5b81600760008773ffffffffffffffffffffffffffffffffffffffff1673ffffffffffffffffffffffffffffffffffffffff16815260200190815260200160002060008673ffffffffffffffffffffffffffffffffffffffff1673ffffffffffffffffffffffffffffffffffffffff1681526020019081526020016000206000828254610d499190611361565b9250508190555080600760008673ffffffffffffffffffffffffffffffffffffffff1673ffffffffffffffffffffffffffffffffffffffff16815260200190815260200160002060008773ffffffffffffffffffffffffffffffffffffffff1673ffffffffffffffffffffffffffffffffffffffff1681526020019081526020016000206000828254610ddc919061151a565b925050819055508373ffffffffffffffffffffffffffffffffffffffff168573ffffffffffffffffffffffffffffffffffffffff167f1f2c1de040604eaf4a8c72b05bd7c16fae213f15cbde69ecf70dd3b97fef1f2f8484604051610e4292919061154e565b60405180910390a35050505050565b60086020528060005260406000206000915054906101000a900473ffffffffffffffffffffffffffffffffffffffff1681565b6007602052816000526040600020602052806000526040600020600091509150505481565b600081519050919050565b600082825260208201905092915050565b60005b83811015610ee3578082015181840152602081019050610ec8565b60008484015250505050565b6000601f19601f8301169050919050565b6000610f0b82610ea9565b610f158185610eb4565b9350610f25818560208601610ec5565b610f2e81610eef565b840191505092915050565b60006020820190508181036000830152610f538184610f00565b905092915050565b600073ffffffffffffffffffffffffffffffffffffffff82169050919050565b6000819050919050565b6000610fa0610f9b610f9684610f5b565b610f7b565b610f5b565b9050919050565b6000610fb282610f85565b9050919050565b6000610fc482610fa7565b9050919050565b610fd481610fb9565b82525050565b6000602082019050610fef6000830184610fcb565b92915050565b600080fd5b600061100582610f5b565b9050919050565b61101581610ffa565b811461102057600080fd5b50565b6000813590506110328161100c565b92915050565b6000819050919050565b61104b81611038565b811461105657600080fd5b50565b60008135905061106881611042565b92915050565b60008060006060848603121561108757611086610ff5565b5b600061109586828701611023565b93505060206110a686828701611023565b92505060406110b786828701611059565b9150509250925092565b6110ca81611038565b82525050565b60006020820190506110e560008301846110c1565b92915050565b60006020828403121561110157611100610ff5565b5b600061110f84828501611023565b91505092915050565b60008115159050919050565b61112d81611118565b82525050565b60006020820190506111486000830184611124565b92915050565b61115781610ffa565b82525050565b6000602082019050611172600083018461114e565b92915050565b6000806040838503121561118f5761118e610ff5565b5b600061119d85828601611023565b92505060206111ae85828601611023565b9150509250929050565b7f4e487b7100000000000000000000000000000000000000000000000000000000600052602260045260246000fd5b600060028204905060018216806111ff57607f821691505b602082108103611212576112116111b8565b5b50919050565b7f496e76616c696420746f6b656e20706169720000000000000000000000000000600082015250565b600061124e601283610eb4565b915061125982611218565b602082019050919050565b6000602082019050818103600083015261127d81611241565b9050919050565b7f4e6f7420656e6f756768206c697175696469747920696e2074686520706f6f6c600082015250565b60006112ba602083610eb4565b91506112c582611284565b602082019050919050565b600060208201905081810360008301526112e9816112ad565b9050919050565b7f4e487b7100000000000000000000000000000000000000000000000000000000600052601160045260246000fd5b600061132a82611038565b915061133583611038565b925082820261134381611038565b9150828204841483151761135a576113596112f0565b5b5092915050565b600061136c82611038565b915061137783611038565b925082820190508082111561138f5761138e6112f0565b5b92915050565b7f4e487b7100000000000000000000000000000000000000000000000000000000600052601260045260246000fd5b60006113cf82611038565b91506113da83611038565b9250826113ea576113e9611395565b5b828204905092915050565b600060608201905061140a600083018661114e565b611417602083018561114e565b61142460408301846110c1565b949350505050565b61143581611118565b811461144057600080fd5b50565b6000815190506114528161142c565b92915050565b60006020828403121561146e5761146d610ff5565b5b600061147c84828501611443565b91505092915050565b7f546f6b656e207472616e73666572206661696c65640000000000000000000000600082015250565b60006114bb601583610eb4565b91506114c682611485565b602082019050919050565b600060208201905081810360008301526114ea816114ae565b9050919050565b6000604082019050611506600083018561114e565b61151360208301846110c1565b9392505050565b600061152582611038565b915061153083611038565b9250828203905081811115611548576115476112f0565b5b92915050565b600060408201905061156360008301856110c1565b61157060208301846110c1565b939250505056fea2646970667358221220df3cc258f3d61cef80d0d64133f08c85c310f22b02bb21f8d12b730c24d6b51564736f6c634300081100334e6f7420536f204c697175696420446563656e7472616c697a65642045786368616e6765",
  "immutableReferences": {},
  "source": "// SPDX-License-Identifier: UNLICENSED\npragma solidity >=0.8.17;\n\nimport \"./ERC20/Link.sol\";\nimport \"./ERC20/Matic.sol\";\nimport \"./ERC20/Sushi.sol\";\nimport \"./ERC20/Usdc.sol\";\nimport \"./ERC20/Wbtc.sol\";\n\nimport \"../node_modules/@openzeppelin/contracts/token/ERC20/IERC20.sol\";\n\ncontract NotSoLiquidDecentralizedExchange {\n    string public name = \"Not So Liquid Decentralized Exchange\";\n    IERC20 public link;\n    IERC20 public matic;\n    IERC20 public sushi;\n    IERC20 public usdc;\n    IERC20 public wbtc;\n\n    address public owner;\n    mapping(address => mapping(address => uint256)) public reserves;\n    mapping(address => IERC20) public tokens;\n    // mapping for supported tokens\n    mapping(address => bool) public supportedTokens;\n\n    event TokenSwap(\n        address indexed tokenSold,\n        address indexed tokenBought,\n        uint256 amountSold,\n        uint256 amountBought\n    );\n\n    constructor(\n        address _link,\n        address _matic,\n        address _sushi,\n        address _usdc,\n        address _wbtc\n    ) {\n        owner = msg.sender;\n        supportedTokens[address(this)] = true;\n        supportedTokens[address(_link)] = true;\n        supportedTokens[address(_matic)] = true;\n        supportedTokens[address(_sushi)] = true;\n        supportedTokens[address(_usdc)] = true;\n        supportedTokens[address(_wbtc)] = true;\n\n        link = IERC20(_link);\n        matic = IERC20(_matic);\n        sushi = IERC20(_sushi);\n        usdc = IERC20(_usdc);\n        wbtc = IERC20(_wbtc);\n\n        tokens[address(matic)] = matic;\n        tokens[address(link)] = link;\n        tokens[address(sushi)] = sushi;\n        tokens[address(usdc)] = usdc;\n        tokens[address(wbtc)] = wbtc;\n\n        reserves[address(this)][address(usdc)] = 970 ether;\n        reserves[address(usdc)][address(this)] = 1700000000000000000000000;\n        // x * y = k\n        // x (eth) = 970\n        // y (usdc) = 1 700 000\n        // k (constant product) = 1 649 000 000\n        // price per ETH = 1752,58\n\n        reserves[address(link)][address(usdc)] = 70000000000000000000000;\n        reserves[address(usdc)][address(link)] = 500000000000000000000000;\n        // x (link) = 70 000\n        // y (usdc) = 500 000\n        // k (constant product) = 35 000 000 000\n        // price per ETH = 7,14\n\n        reserves[address(matic)][address(usdc)] = 90000000000000000000000;\n        reserves[address(usdc)][address(matic)] = 100000000000000000000000;\n        // x (matic) = 90 000\n        // y (usdc) = 100 000\n        // k (constant product) = 9 000 000 000\n        // price per ETH = 1,11\n\n        reserves[address(sushi)][address(usdc)] = 95000000000000000000000;\n        reserves[address(usdc)][address(sushi)] = 100000000000000000000000;\n        // x (sushi) = 95 000\n        // y (usdc) = 100 000\n        // k (constant product) = 9 500 000 000\n        // price per ETH = 1,15\n\n        reserves[address(wbtc)][address(usdc)] = 3550000000000000000000;\n        reserves[address(usdc)][address(wbtc)] = 100000000000000000000000000;\n        // x (wbtc) = 355\n        // y (usdc) = 10 000 000\n        // k (constant product) = 3 550 000 000\n        // price per ETH = 28 170\n    }\n\n    function getAmountOut(\n        address tokenSold,\n        address tokenBought,\n        uint256 amountSold\n    ) public view returns (uint256) {\n        require(\n            supportedTokens[tokenSold] && supportedTokens[tokenBought],\n            \"Invalid token pair\"\n        );\n        require(\n            reserves[tokenSold][tokenBought] > 0 &&\n                reserves[tokenBought][tokenSold] > 0,\n            \"Not enough liquidity in the pool\"\n        );\n        // [ETH][DAI] = 9 700\n        // [DAI][ETH] = 17 000 000\n        uint256 numerator = reserves[tokenBought][tokenSold] * amountSold;\n        uint256 denominator = reserves[tokenSold][tokenBought] + amountSold;\n        return numerator / denominator;\n    }\n\n    function swap(\n        address tokenSold,\n        address tokenBought,\n        uint256 _amountSold\n    ) public payable {\n        require(\n            supportedTokens[tokenSold] && supportedTokens[tokenBought],\n            \"Invalid token pair\"\n        );\n        uint256 amountSold = _amountSold;\n        uint256 amountBought = getAmountOut(tokenSold, tokenBought, amountSold);\n        require(amountBought > 0, \"Not enough liquidity in the pool\");\n\n        if (tokenBought == address(this)) {\n            require(\n                IERC20(tokenSold).transferFrom(\n                    msg.sender,\n                    address(this),\n                    amountSold\n                ),\n                \"Token transfer failed\"\n            );\n            payable(msg.sender).transfer(amountBought);\n        } else if (tokenSold == address(this)) {\n            require(\n                IERC20(tokenBought).transfer(msg.sender, amountBought),\n                \"Token transfer failed\"\n            );\n        } else {\n            require(\n                IERC20(tokenSold).transferFrom(\n                    msg.sender,\n                    address(this),\n                    amountSold\n                ),\n                \"Token transfer failed\"\n            );\n            require(\n                IERC20(tokenBought).approve(msg.sender, amountBought),\n                \"Token transfer failed\"\n            );\n        }\n        reserves[tokenSold][tokenBought] += amountSold;\n        reserves[tokenBought][tokenSold] -= amountBought;\n        emit TokenSwap(tokenSold, tokenBought, amountSold, amountBought);\n    }\n}\n",
  "sourcePath": "/home/suprabit/Documents/diplomski/code/diplomski-rad/contracts/NotSoLiquidDex.sol",
  "compiler": {
    "name": "solc",
    "version": "0.8.17+commit.8df45f5f.Emscripten.clang"
  },
  "schemaVersion": "3.4.10",
  "updatedAt": "2023-05-05T15:00:35.293Z",
  "networkType": "ethereum",
  "devdoc": {
    "kind": "dev",
    "methods": {},
    "version": 1
  },
  "userdoc": {
    "kind": "user",
    "methods": {},
    "version": 1
  }
}